:020000040800F2
:100000000000012009760008A9140008F114000876
:10001000111500081915000821150008000000003E
:10002000000000000000000000000000291500088A
:10003000351500080000000041150008691500088A
:100040005176000851760008517600084D150008D9
:100050005176000851760008B9150008C915000846
:1000600051760008D5150008517600085176000831
:100070005176000851760008517600085176000844
:100080005176000851760008517600085176000834
:10009000517600085176000851760008E5150008F1
:1000A0005176000851760008517600085176000814
:1000B0005176000851760008517600085176000804
:1000C00051760008517600085176000851760008F4
:1000D00051760008517600085176000851760008E4
:1000E0008D150008517600085176000800000000C8
:1000F0000000000000000000000000000000000000
:100100000000000000000000517600085176000851
:1001100051760008517600085176000851760008A3
:100120005176000851760008517600085176000893
:1001300051760008A1150008AD1500085176000899
:100140005176000851760008517600085176000873
:10015000000000000000000000000000000000009F
:10016000000000000000000000000000000000008F
:10017000000000000000000000000000000000007F
:10018000000000000000000000000000000000006F
:10019000000000000000000000000000000000005F
:1001A000000000000000000000000000000000004F
:1001B000000000000000000000000000000000003F
:1001C000000000000000000000000000000000002F
:1001D000000000000000000000000000000000001F
:0401E0005FF8E0F1F3
:1001E80008B540F20C10074BC2F200001B1A062B90
:1001F80000D808BD40F20003C0F20003002BF8D07D
:100208009847F6E70F01002008B540F20C1040F2BD
:100218000C13C2F20000C2F200031B1A9B1003EB7E
:10022800D373591000D108BD40F20002C0F2000299
:10023800002AF8D09047F6E710B540F21014C2F241
:100248000004237873B9FFF7CBFF40F20003C0F234
:1002580000032BB147F62C20C0F60000AFF3008056
:100268000123237010BD00BF08B540F20003C0F29F
:1002780000034BB147F62C2040F21411C0F60000E1
:10028800C2F20001AFF3008040F20C10C2F200008D
:1002980003682BB140F20003C0F2000303B1984792
:1002A800BDE80840B0E700BF81F0004102E000BFB0
:1002B80083F0004330B54FEA41044FEA430594EA1E
:1002C800050F08BF90EA020F1FBF54EA000C55EA59
:1002D800020C7FEA645C7FEA655C00F0E2804FEA2A
:1002E8005454D4EB5555B8BF6D420CDD2C4480EA0C
:1002F800020281EA030382EA000083EA010180EA3C
:10030800020281EA0303362D88BF30BD11F0004F89
:100318004FEA01314FF4801C4CEA113102D04042BF
:1003280061EB410113F0004F4FEA03334CEA1333FA
:1003380002D0524263EB430394EA050F00F0A78012
:10034800A4F10104D5F1200E0DDB02FA0EFC22FA0D
:1003580005F2801841F1000103FA0EF2801843FA01
:1003680005F359410EE0A5F120050EF1200E012AF2
:1003780003FA0EFC28BF4CF0020C43FA05F3C01830
:1003880051EBE37101F0004507D54FF0000EDCF1A9
:10039800000C7EEB00006EEB0101B1F5801F1BD352
:1003A800B1F5001F0CD349085FEA30004FEA3C0C56
:1003B80004F101044FEA445212F5800F80F09A804C
:1003C800BCF1004F08BF5FEA500C50F1000041EB50
:1003D800045141EA050130BD5FEA4C0C404141EB54
:1003E800010111F4801FA4F10104E9D191F0000F7B
:1003F80004BF01460020B1FA81F308BF2033A3F1FE
:100408000B03B3F120020CDA0C3208DD02F1140CF4
:10041800C2F10C0201FA0CF021FA02F10CE002F12F
:100428001402D8BFC2F1200C01FA02F120FA0CFC28
:10043800DCBF41EA0C019040E41AA2BF01EB045171
:10044800294330BD6FEA04041F3C1CDA0C340EDC6F
:1004580004F11404C4F1200220FA04F001FA02F3B2
:1004680040EA030021FA04F345EA030130BDC4F170
:100478000C04C4F1200220FA02F001FA04F340EA65
:100488000300294630BD21FA04F0294630BD94F016
:10049800000F83F4801306BF81F480110134013DFD
:1004A8004EE77FEA645C18BF7FEA655C29D094EA6E
:1004B800050F08BF90EA020F05D054EA000C04BFEC
:1004C8001946104630BD91EA030F1EBF00210020D7
:1004D80030BD5FEA545C05D14000494128BF41F076
:1004E800004130BD14F580043CBF01F5801130BDDA
:1004F80001F0004545F0FE4141F470014FF0000065
:1005080030BD7FEA645C1ABF194610467FEA655C15
:100518001CBF0B46024650EA013406BF52EA0335B7
:1005280091EA030F41F4002130BD00BF90F0000FA5
:1005380004BF0021704730B54FF4806404F13204E1
:100548004FF000054FF0000150E700BF90F0000F9A
:1005580004BF0021704730B54FF4806404F13204C1
:1005680010F0004548BF40424FF000013EE700BF91
:1005780042004FEAE2014FEA31014FEA02701FBF21
:1005880012F07F4393F07F4F81F06051704792F0F3
:10059800000F14BF93F07F4F704730B54FF460746D
:1005A80001F0004521F0004120E700BF50EA0102B8
:1005B80008BF704730B54FF000050AE050EA010265
:1005C80008BF704730B511F0004502D5404261EBD5
:1005D80041014FF4806404F132045FEA915C3FF416
:1005E800DCAE4FF003025FEADC0C18BF03325FEAAF
:1005F800DC0C18BF033202EBDC02C2F1200300FA64
:1006080003FC20FA02F001FA03FE40EA0E0021FA88
:1006180002F11444C1E600BF70B54FF0FF0C4CF472
:10062800E06C1CEA11541DBF1CEA135594EA0C0F28
:1006380095EA0C0F00F0DEF82C4481EA030621EA63
:100648004C5123EA4C5350EA013518BF52EA03359E
:1006580041F4801143F4801338D0A0FB02CE4FF050
:100668000005E1FB02E506F00042E0FB03E54FF080
:100678000006E1FB03569CF0000F18BF4EF0010E78
:10068800A4F1FF04B6F5007F64F5407404D25FEA74
:100698004E0E6D4146EB060642EAC62141EA555127
:1006A8004FEAC52040EA5E504FEACE2EB4F1FD0C69
:1006B80088BFBCF5E06F1ED8BEF1004F08BF5FEAE7
:1006C800500E50F1000041EB045170BD06F0004699
:1006D80046EA010140EA020081EA0301B4EB5C0446
:1006E800C2BFD4EB0C0541EA045170BD41F480113E
:1006F8004FF0000E013C00F3AB8014F1360FDEBF63
:10070800002001F0004170BDC4F10004203C35DA3E
:100718000C341BDC04F11404C4F1200500FA05F3C1
:1007280020FA04F001FA05F240EA020001F0004262
:1007380021F0004110EBD37021FA04F642EB0601D8
:100748005EEA430E08BF20EAD37070BDC4F10C0402
:10075800C4F1200500FA04F320FA05F001FA04F2C6
:1007680040EA020001F0004110EBD37041F10001B2
:100778005EEA430E08BF20EAD37070BDC4F12005BD
:1007880000FA05F24EEA020E20FA04F301FA05F225
:1007980043EA020321FA04F001F0004121FA04F2CD
:1007A80020EA020000EBD3705EEA430E08BF20EA9D
:1007B800D37070BD94F0000F0FD101F000464000D7
:1007C80041EB010111F4801F08BF013CF7D041EA59
:1007D800060195F0000F18BF704703F0004652005D
:1007E80043EB030313F4801F08BF013DF7D043EA2E
:1007F8000603704794EA0C0F0CEA135518BF95EAE4
:100808000C0F0CD050EA410618BF52EA4306D1D16A
:1008180081EA030101F000414FF0000070BD50EA89
:10082800410606BF1046194652EA430619D094EA13
:100838000C0F02D150EA013613D195EA0C0F05D1FD
:1008480052EA03361CBF104619460AD181EA030151
:1008580001F0004141F0FE4141F470014FF0000009
:1008680070BD41F0FE4141F4780170BD70B54FF0A4
:10087800FF0C4CF4E06C1CEA11541DBF1CEA135524
:1008880094EA0C0F95EA0C0F00F0A7F8A4EB050406
:1008980081EA030E52EA03354FEA013100F08880FD
:1008A8004FEA03334FF0805545EA131343EA1263C6
:1008B8004FEA022245EA111545EA10654FEA00267B
:1008C8000EF000419D4208BF964244F1FD0404F534
:1008D800407402D25B084FEA3202B61A65EB030590
:1008E8005B084FEA32024FF480104FF4002CB6EB4D
:1008F800020E75EB030E22BFB61A754640EA0C00CD
:100908005B084FEA3202B6EB020E75EB030E22BF0C
:10091800B61A754640EA5C005B084FEA3202B6EB4D
:10092800020E75EB030E22BFB61A754640EA9C000C
:100938005B084FEA3202B6EB020E75EB030E22BFDC
:10094800B61A754640EADC0055EA060E18D04FEA9A
:10095800051545EA16754FEA06164FEAC30343EA3A
:1009680052734FEAC2025FEA1C1CC0D111F4801F07
:100978000BD141EA00014FF000004FF0004CB6E700
:1009880011F4801F04BF01430020B4F1FD0C88BF9F
:10099800BCF5E06F3FF6AFAEB5EB030C04BFB6EBAA
:1009A800020C5FEA500C50F1000041EB045170BD9D
:1009B8000EF0004E4EEA113114EB5C04C2BFD4EBCA
:1009C8000C0541EA045170BD41F480114FF0000E4E
:1009D800013C90E645EA060E8DE60CEA135594EACA
:1009E8000C0F08BF95EA0C0F3FF43BAF94EA0C0FCD
:1009F8000AD150EA01347FF434AF95EA0C0F7FF442
:100A080025AF104619462CE795EA0C0F06D152EA95
:100A180003353FF4FDAE1046194622E750EA410679
:100A280018BF52EA43067FF4C5AE50EA41047FF48A
:100A38000DAF52EA43057FF4EBAE12E74FF0FF3CEF
:100A480006E000BF4FF0010C02E000BF4FF0010CC0
:100A58004DF804CD4FEA410C7FEA6C5C4FEA430C39
:100A680018BF7FEA6C5C1BD001B050EA410C0CBF88
:100A780052EA430C91EA030F02BF90EA020F0020EA
:100A8800704710F1000F91EA030F58BF994208BF51
:100A980090422CBFD8176FEAE37040F0010070470E
:100AA8004FEA410C7FEA6C5C02D150EA013C07D165
:100AB8004FEA430C7FEA6C5CD6D152EA033CD3D0B0
:100AC8005DF8040B704700BF8446104662468C46AA
:100AD8001946634600E000BF01B5FFF7B7FF0028DD
:100AE80048BF10F1000F01BD4DF808EDFFF7F4FF06
:100AF8000CBF012000205DF808FB00BF4DF808ED91
:100B0800FFF7EAFF34BF012000205DF808FB00BFB3
:100B18004DF808EDFFF7E0FF94BF012000205DF8D5
:100B280008FB00BF4DF808EDFFF7CEFF94BF01208A
:100B380000205DF808FB00BF4DF808EDFFF7C4FF83
:100B480034BF012000205DF808FB00BF4FEA4102D6
:100B580012F5001215D211D56FF47873B3EB625207
:100B680012D94FEAC12343F0004343EA505311F02E
:100B7800004F23FA02F018BF404270474FF00000C0
:100B8800704750EA013005D111F0004008BF6FF0FE
:100B9800004070474FF00000704700BF4A0011D274
:100BA80012F5001211D20DD56FF47873B3EB6252BF
:100BB8000ED44FEAC12343F0004343EA505323FACB
:100BC80002F070474FF00000704750EA013002D140
:100BD8004FF0FF3070474FF0000070474FEA410276
:100BE800B2F1E04324BFB3F5001CDCF1FE5C0DD983
:100BF80001F0004C4FEAC0024CEA5070B2F1004FCD
:100C080040EB830008BF20F00100704711F0804FCF
:100C180021D113F13872BCBF01F00040704741F494
:100C280080114FEA5252C2F11802C2F1200C10FA98
:100C38000CF320FA02F018BF40F001004FEAC1237C
:100C48004FEAD32303FA0CFC40EA0C0023FA02F320
:100C58004FEA4303CCE77FEA625307D150EA0133F6
:100C68001EBF4FF0FE4040F44000704701F00040C6
:100C780040F0FE4040F40000704700BF80F00040A4
:100C880002E000BF81F0004142001FBF5FEA41035C
:100C980092EA030F7FEA226C7FEA236C6AD04FEA5C
:100CA8001262D2EB1363C1BFD218414048404140A1
:100CB800B8BF5B42192B88BF704710F0004F40F453
:100CC800000020F07F4018BF404211F0004F41F46F
:100CD800000121F07F4118BF494292EA030F3FD03B
:100CE800A2F1010241FA03FC10EB0C00C3F120034E
:100CF80001FA03F100F0004302D5494260EB4000DD
:100D0800B0F5000F13D3B0F1807F06D340084FEA47
:100D1800310102F10102FE2A51D2B1F1004F40EB3C
:100D2800C25008BF20F0010040EA030070474900A4
:100D380040EB000010F4000FA2F10102EDD1B0FA6F
:100D480080FCACF1080CB2EB0C0200FA0CF0AABF64
:100D580000EBC25052421843BCBFD0401843704702
:100D680092F0000F81F4000106BF80F40000013208
:100D7800013BB5E74FEA41037FEA226C18BF7FEADF
:100D8800236C21D092EA030F04D092F0000F08BF21
:100D98000846704790EA010F1CBF0020704712F008
:100DA8007F4F04D1400028BF40F00040704712F147
:100DB80000723CBF00F50000704700F0004343F0AC
:100DC800FE4040F4000070477FEA226216BF0846E2
:100DD8007FEA23630146420206BF5FEA412390EAA5
:100DE800010F40F4800070474FF0000304E000BF9B
:100DF80010F0004348BF40425FEA000C08BF70474C
:100E080043F0964301464FF000001CE050EA01020F
:100E180008BF70474FF000030AE000BF50EA010224
:100E280008BF704711F0004302D5404261EB410111
:100E38005FEA010C02BF84460146002043F0B64336
:100E480008BFA3F18053A3F50003BCFA8CF2083A5B
:100E5800A3EBC25310DB01FA02FC634400FA02FC64
:100E6800C2F12002BCF1004F20FA02F243EB02006B
:100E780008BF20F00100704702F1200201FA02FCCD
:100E8800C2F1200250EA4C0021FA02F243EB0200C0
:100E980008BF20EADC7070474FF0FF0C1CEAD05204
:100EA8001EBF1CEAD15392EA0C0F93EA0C0F6FD0C5
:100EB8001A4480EA010C400218BF5FEA41211ED0A3
:100EC8004FF0006343EA501043EA5111A0FB01318F
:100ED8000CF00040B1F5000F3EBF490041EAD37164
:100EE8005B0040EA010062F17F02FD2A1DD8B3F1E0
:100EF800004F40EBC25008BF20F00100704790F04F
:100F0800000F0CF0004C08BF49024CEA502040EAA0
:100F180051207F3AC2BFD2F1FF0340EAC250704766
:100F280040F400004FF00003013A5DDC12F1190FA4
:100F3800DCBF00F000407047C2F10002410021FA16
:100F480002F1C2F1200200FA02FC5FEA310040F12E
:100F5800000053EA4C0308BF20EADC70704792F0A7
:100F6800000F00F0004C02BF400010F4000F013ADF
:100F7800F9D040EA0C0093F0000F01F0004C02BFDA
:100F8800490011F4000F013BF9D041EA0C018FE749
:100F98000CEAD15392EA0C0F18BF93EA0C0F0AD04F
:100FA80030F0004C18BF31F0004CD8D180EA010075
:100FB80000F00040704790F0000F17BF90F0004F0E
:100FC800084691F0000F91F0004F14D092EA0C0FF0
:100FD80001D142020FD193EA0C0F03D14B0218BF83
:100FE800084608D180EA010000F0004040F0FE40C9
:100FF80040F40000704740F0FE4040F44000704765
:101008004FF0FF0C1CEAD0521EBF1CEAD15392EAE3
:101018000C0F93EA0C0F69D0A2EB030280EA010CD3
:1010280049024FEA402037D04FF0805343EA11116C
:1010380043EA10130CF000408B4238BF5B0042F1CA
:101048007D024FF4000C8B4224BF5B1A40EA0C006F
:10105800B3EB510F24BFA3EB510340EA5C00B3EBA1
:10106800910F24BFA3EB910340EA9C00B3EBD10F8F
:1010780024BFA3EBD10340EADC001B0118BF5FEAE1
:101088001C1CE0D1FD2A3FF650AF8B4240EBC2500A
:1010980008BF20F0010070470CF0004C4CEA5020CB
:1010A8007F32C2BFD2F1FF0340EAC250704740F41A
:1010B80000004FF00003013A37E792F0000F00F00C
:1010C800004C02BF400010F4000F013AF9D040EA8A
:1010D8000C0093F0000F01F0004C02BF490011F41E
:1010E800000F013BF9D041EA0C0195E70CEAD15316
:1010F80092EA0C0F08D142027FF47DAF93EA0C0FFD
:101108007FF470AF084676E793EA0C0F04D14B02E0
:101118003FF44CAF08466EE730F0004C18BF31F092
:10112800004CCAD130F000427FF45CAF31F000438C
:101138007FF43CAF5FE700BF40F20003C2F2000358
:1011480000B585B01868694600F08CF9431C06D0D4
:10115800009B0198029A1844039B1044184405B058
:101168005DF804FB70B547F6442647F64425C0F6FB
:101178000006C0F60005761BB6101CBF043D00240F
:1011880005D0013455F8043F9847A642F9D147F6EF
:10119800482647F64425C0F60005C0F60006761B2B
:1011A80006F040FCB6101CBF043D002406D00134F4
:1011B80055F8043F9847A642F9D170BD70BD00BFED
:1011C8000F2AF0B445D940EA01039B0745D1A2F1A3
:1011D80010070C4603463F0900EB07161036256832
:1011E8001033103443F8105C54F80C5C43F80C5C72
:1011F80054F8085C43F8085C54F8045C43F8045C51
:10120800B342ECD17B1C02F00F0CBCF1030F4FEA88
:1012180003131944034422D90E461D46644656F862
:10122800047B043C032C45F8047BF8D8ACF1040497
:1012380002F0030224F0030404342344214432B1AD
:101248000A4411F8014B914203F8014BF9D1F0BC63
:1012580070470346002AF3D1F9E70346F0E76246F0
:10126800002AEDD1F3E700BF8307F0B448D0541E3D
:10127800002A43D0CDB2034602E0002C3ED01446EB
:1012880003F8015B13F0030F04F1FF32F5D1032CCF
:101298002DD9CDB20F2C45EA052545EA054518D9C3
:1012A800A4F1100703F110061A463F0906EB0716CA
:1012B8001560103242F80C5C42F8085C42F8045C95
:1012C800B242F5D104F00F040137032C03EB0713E6
:1012D8000DD91E462246043A46F8045B032AFAD87A
:1012E800221F04F0030422F00302043213442CB139
:1012F800C9B21C4403F8011BA342FBD1F0BC7047E0
:1013080014460346C3E700BF2DE9F84FC1F30A5757
:10131800A7F2FF360246132E0B4604460D468946B1
:101328008A46804625DC002E57DB4FF6FF77C0F251
:101338000F07374107EA010C5CEA000C1ED038A3FE
:10134800D3E90023FEF7B6FF00220023FFF7F4FBE2
:1013580058B1002D4FF00008C2BF4FF4801A4AFA66
:1013680006F606EB050A2AEA070940464946BDE89B
:10137800F88F332E06DDB6F5806F46D01046194635
:10138800BDE8F88F4FF0FF3BA7F2134C2BFA0CFB8C
:101398001BEA000FF2D022A3D3E90023FEF78AFF4D
:1013A80000220023FFF7C8FB0028DED0002D0DDD4A
:1013B800142E09D0C7F586674FF00108033708FADD
:1013C80007F818EB040801D305F1010A28EA0B080D
:1013D800D14640464946BDE8F88F11A3D3E900231A
:1013E800FEF768FF00220023FFF7A6FB0028BCD009
:1013F800002D0EDB55EA040808BFC146B5D04FF0F2
:101408000009C846C3F6F079AFE7FEF753FFBDE819
:10141800F88F4FF000084FF00049A6E7AFF30080BF
:101428009C7500883CE4377E80B584B000AF786056
:10143800FFF782FEF8607A6844F6D353C1F262037C
:10144800A3FB02139B09BB6000BFFFF775FE0246B2
:10145800FB68D21ABB689A42F7D3002318461037A4
:10146800BD4680BD80B584B000AF7860396000F0BB
:101478001DF90346FB603B68002B0BD03B68FA68FC
:101488001A603B6800225A603B6800229A603B68F9
:101498000022DA60FB6818461037BD4680BD00BFE1
:1014A80080B400AFBD465DF8047B704780B48BB054
:1014B80000AF78607B681B687B627B685B683B6217
:1014C8007B689B68FB617B68DB68BB617B681B6929
:1014D8007B617B685B693B617B689B69FB607B68C0
:1014E800DB69BB60FEE700BF80B400AF1EF0040FED
:1014F8000CBFEFF30880EFF309808169004A1047B9
:10150800B5140008FEE700BF80B400AFFEE700BFD7
:1015180080B400AFFEE700BF80B400AFFEE700BFB5
:1015280080B400AFBD465DF8047B704780B400AF5F
:10153800BD465DF8047B704780B400AFBD465DF8DA
:10154800047B704780B500AF012004F0AFFF03466D
:10155800002B04D0012004F0D5FF04F095FF80BDD6
:1015680080B400AF40F2B813C2F200031B685A1CE3
:1015780040F2B813C2F200031A60BD465DF8047B5E
:10158800704700BF80B500AFAFF300804FF4005044
:1015980005F03AFE80BD00BF80B400AFBD465DF8DF
:1015A800047B704780B400AFBD465DF8047B70478C
:1015B80080B500AF01F0F6FF012005F025FE80BDE3
:1015C80080B500AF022005F01FFE80BD80B500AFDA
:1015D80001F0EEFF082005F017FE80BD80B500AFD2
:1015E80001F0E6FF202005F00FFE80BD80B483B037
:1015F80000AF03463960FB7197F90730002B0EDA0C
:101608004FF46D43CEF20003FA7902F00F02111F76
:101618003A68D2B21201D2B20B441A760CE04FF4F7
:101628006143CEF2000397F907103A68D2B212016B
:10163800D2B20B4483F800230C37BD465DF8047B17
:10164800704700BF80B582B000AF78607B68B3F1A7
:10165800807F01D301231AE04EF21003CEF200037B
:101668007A6822F07F42013A5A604FF0FF300F212A
:10167800FFF7BCFF4EF21003CEF2000300229A607F
:101688004EF21003CEF2000307221A600023184618
:101698000837BD4680BD00BF80B400AF4FF0FF33B0
:1016A8001846BD465DF8047B704700BF80B400AFA4
:1016B80040F2B813C2F200031B681846BD465DF835
:1016C800047B704780B500AF40F20813C2F20003F4
:1016D8001A6844F6D353C1F26203A3FB02139B09B1
:1016E8001846FFF7AFFF0346002B00D0FEE74FF088
:1016F800FF300521FFF77AFF0023184680BD00BFA1
:1017080080B584B000AF00F033F82023BB812823D4
:10171800FB7307F10C034FF44060C4F20100194653
:1017280005F062FB0120052105F050FC20237B60B9
:1017380000233B7208237B720123BB723B1D1846B2
:1017480005F0CCFC4FF4407005F06EFD17233B709C
:101758000F237B700023BB700123FB703B461846A8
:1017680005F076FD002318461037BD4680BD00BF42
:1017780080B584B000AF0223BB812823FB7307F137
:101788000C034FF48050C4F20100194605F02CFBFD
:101798000220012105F01AFC02237B6000233B7222
:1017A80008237B720123BB723B1D184605F096FC8B
:1017B80007233B700F237B700023BB700123FB7052
:1017C8003B46184605F044FD1037BD4680BD00BFB6
:1017D80080B584B000AF0346FB710223BB600023D1
:1017E8003B7308237B73FB79BB7307F10803184627
:1017F80005F074FC1037BD4680BD00BF80B485B0CD
:1018080000AF78600023FB730023BB604FF4806354
:10181800C4F201031A687B681340BB60BB68002BE5
:1018280002D00123FB7301E00023FB73FB7B184606
:101838001437BD465DF8047B704700BF80B586B09D
:1018480000AF04F079FE4FF4803004F0D5FE04F0C8
:1018580017FF0346FB75FB7D002B42D0102005F0D7
:101868001BFC022005F0F8FB002005F007F800201B
:1018780005F044F84FF4806005F020F84FF400407C
:1018880005F05CF8302004F079FF4FF4C06004F0F4
:1018980095FF012004F0B2FF00BF3B2005F026FAB7
:1018A8000346002BF9D04FF48030022104F042FFA8
:1018B8004FF480304FF4E01104F00AFF012004F0E7
:1018C80029FF00BF392005F011FA0346002BF9D093
:1018D800022004F0A3FF00BF04F0C0FF0346082B5A
:1018E800FAD13B46184605F049F84FF480500121DB
:1018F80005F05CF94FF48040012105F07FF97D2067
:10190800012105F053F9002318461837BD4680BD5C
:1019180080B588B000AF0346FB804FF44050C4F256
:10192800010004F0F1FC0023BB814FF48273FB81BA
:1019380000233B8200237B820023BB824FF4007389
:10194800FB82FB883B8300237B830723BB8307F150
:101958000C034FF44050C4F20100194604F010FD86
:101968004FF44050C4F20100012104F04DFD20372E
:10197800BD4680BD80B586B000AF4FF44050C4F27C
:10198800010004F0C1FC0023BB804FF48273FB808C
:1019980000233B8100237B810023BB814FF400732C
:1019A800FB8110233B8200237B820723BB823B1DE4
:1019B8004FF44050C4F20100194604F0E1FCA023A2
:1019C8003B801823FB700323BB703B464FF4006039
:1019D800C4F20100194605F007FA40233B8048236A
:1019E800FB703B464FF40060C4F20100194605F055
:1019F800FBF910233B801023FB700323BB703B468D
:101A08004FF40060C4F20100194605F0EDF94FF4F7
:101A18004050C4F20100002104F016FD4FF440507C
:101A2800C4F20100012104F0EFFC4FF40060C4F29D
:101A38000100102105F0AEFA002318461837BD46FC
:101A480080BD00BF80B582B000AF7D20012105F0C8
:101A5800ADF84FF6FF73BB800023FB713B1D4FF4BD
:101A68000060C4F20100194605F0BEF93B1D4FF4B1
:101A78004060C4F20100194605F0B6F93B1D4FF469
:101A88008050C4F20100194605F0AEF93B1D4FF431
:101A9800A050C4F20100194605F0A6F93B1D4FF409
:101AA800C050C4F20100194605F09EF941F2C8037E
:101AB800BB801023FB710323BB713B1D4FF4805087
:101AC800C4F20100194605F08FF9002318460837BB
:101AD800BD4680BD80B582B000AF0123BB80102316
:101AE800FB710323BB713B1D4FF40060C4F201007E
:101AF800194605F079F94FF40060C4F2010001219C
:101B080005F056FA0123BB800023FB710323BB7148
:101B18003B1D4FF40060C4F20100194605F064F95A
:101B28004FF47A70FFF780FC0837BD4680BD00BFD0
:101B380080B586B000AF78607B68002B2FD001237A
:101B4800BB820423FB7507F114034FF40060C4F251
:101B58000100194605F048F90020002105F036FA81
:101B68000123FB6000233B7408237B740123BB74AF
:101B780007F10C03184605F0B1FA4FF4407005F070
:101B880053FB06233B720F237B720023BB72012396
:101B9800FB7207F10803184605F05AFB1BE0012306
:101BA800BB820023FB750323BB7507F114034FF4B5
:101BB8000060C4F20100194605F016F90123FB6024
:101BC80000233B7408237B740023BB7407F10C03C8
:101BD800184605F083FA1837BD4680BD80B582B037
:101BE80000AF0346FB71FB79042B38D801A252F8E9
:101BF80023F000BF111C0008211C0008311C00083C
:101C0800431C0008551C00084FF48050C4F2010022
:101C1800402105F0CDF923E04FF48050C4F20100D3
:101C2800802105F0C5F91BE04FF48050C4F2010093
:101C38004FF4807105F0BCF912E04FF48050C4F203
:101C480001004FF4007105F0B3F909E04FF480503A
:101C5800C4F201004FF4707105F0AAF900E000BF6A
:101C68000837BD4680BD00BF80B582B000AF0346CF
:101C7800FB71FB79042B38D801A252F823F000BF7E
:101C88009D1C0008AD1C0008BD1C0008CF1C0008E6
:101C9800E11C00084FF48050C4F20100402105F017
:101CA80079F923E04FF48050C4F20100802105F057
:101CB80071F91BE04FF48050C4F201004FF48071B9
:101CC80005F068F912E04FF48050C4F201004FF4B7
:101CD800007105F05FF909E04FF48050C4F201008B
:101CE8004FF4707105F056F900E000BF0837BD46A3
:101CF80080BD00BF80B500AFFFF7A0FDFFF7A2FED3
:101D0800FFF7E0FC00F00EF8FFF7FAFCFFF7C4FC61
:101D18000023184680BD00BF80B500AFFFF72AFE3C
:101D280080BD00BF80B584B000AF0120012104F060
:101D380065FF42F6E063BB800023FB804FF6FF732C
:101D48003B8100237B8100233B733B1D4FF0804088
:101D5800194604F02DFA4FF08040002104F0B4FA3F
:101D68000220012104F04AFF0C23BB801023FB80D2
:101D78004FF6FF733B8100237B8100233B733B1DA0
:101D88004FF48060C4F20000194604F011FA4FF4D1
:101D98008060C4F20000012104F096FA1037BD46B5
:101DA80080BD00BF2DE9704F9046994682468B460C
:101DB80000F0C2F84FF40063C4F2010310224FF49C
:101DC80040565A61C4F201064FF0000EBAF1000FF6
:101DD8000ED01BF80E30B38135894FF44054EA0712
:101DE800C4F20104F8D50EF1010ED645A389F0DB43
:101DF80000214FF440550E46C4F20105B8F1000F1A
:101E08000ED019F80130AB812C894FF44051E3070B
:101E1800C4F20101F8D5013646458B893146F0D127
:101E28004FF40063C4F2010310221A6100F098F81D
:101E38000020BDE8708F00BF2DE9704F904699468D
:101E480082468B4600F078F84FF40063C4F2010331
:101E580010224FF440565A61C4F201064FF0000EAA
:101E6800BAF1000F0ED01BF80E30B38135894FF44C
:101E78004054EA07C4F20104F8D50EF1010ED64524
:101E8800A389F0DBB8F1000F16D04FF0000E4FF425
:101E9800405576467246C4F20105AA812C894FF452
:101EA8004051E307C4F20101F8D501368B89464554
:101EB80009F80E30B646F0D14FF40063C4F20103BE
:101EC80010221A6100F04CF80020BDE8708F00BFA6
:101ED80080B483B000AF0346FB714FF46143CEF288
:101EE800000397F907205209F97901F01F01012031
:101EF80000FA01F143F822100C37BD465DF8047B67
:101F0800704700BF80B483B000AF0346FB714FF445
:101F18006143CEF2000397F907205209F97901F0DD
:101F28001F01012000FA01F1203243F822100C377A
:101F3800BD465DF8047B704780B582B000AF1720BE
:101F4800FFF75CFC03467B607B68002B02D0172000
:101F5800FFF7D8FF7B6818460837BD4680BD00BF2D
:101F680080B582B000AF78607B68002B02D0172064
:101F7800FFF7AEFF0837BD4680BD00BF0000000078
:101F880080B588B000AF396013460246FA71BB715C
:101F98000023FB613868FEF7EBFA02460B46104651
:101FA80019464FF000024FF00003C4F21003FEF789
:101FB80033FB02460B4610461946FEF7C7FD03469B
:101FC8007B617B69FF2B01DDFF237B61BB79012BE3
:101FD80046D1FB79042B01D0072B20D1FA7947F29F
:101FE800C863C0F600039B5C3B6102E0FB690133F8
:101FF800FB6147F26472C0F6000239690B461B01A7
:102008000B449B00F9690B4413441B781A467B69FF
:102018009A42EBDBFB691C3BBB6100BF64E0FA79C9
:1020280047F2C063C0F600039B5C3B6102E0FB69BA
:102038000133FB6147F2D062C0F6000239690B46F2
:10204800DB000B449B000B44F9690B4413441B78D9
:102058001A467B699A42EADBFB69173BBB6143E09E
:10206800FB79042B01D0072B20D1FA7947F2C863FA
:10207800C0F600039B5C3B6102E0FB690133FB6136
:1020880047F65402C0F6000239690B461B015B1A79
:102098009B005B1AF9690B4413441B781A467B6949
:1020A8009A42EADBFB691E3BBB611DE0FA7947F205
:1020B800C063C0F600039B5C3B6102E0FB6901332F
:1020C800FB6147F2EC73C0F600033A691A2101FB81
:1020D80002F1FA690A4413441B781A467B699A424A
:1020E800ECDBFB69113BBB61B869FEF781FE034677
:1020F8001846FEF73DFA02460B46C7E90223D7E920
:10210800020109A3D3E90023FEF786FA02460B462B
:10211800C7E90223D7E90223104619462037BD46EE
:1021280080BD00BFAFF300807B14AE47E17A843FE7
:1021380080B584B000AF0346FB800023FB6040F20B
:102148002C13C2F20003002283F8682040F22C13FB
:10215800C2F2000300225A7740F22C13C2F20003A5
:102168000022DA6640F22C13C2F20003002283F840
:10217800552040F22C13C2F2000300221A6740F2E5
:102188002C13C2F20003002283F8692040F22C13BA
:10219800C2F2000300225A6740F22C13C2F2000375
:1021A80000229A6700F000F9024640F22C13C2F2AE
:1021B80000031A6040F22C13C2F200031A684FF4AD
:1021C8009873CDF6CA639A4202D04FF0FF33DAE033
:1021D800002000F065FFFB8803F00803002B08D0FF
:1021E800042000F05DFC024640F22C13C2F200030A
:1021F8001A6740F22C13C2F200031B6FDBB2002BEC
:1022080009D002237B7207F109032D201221012234
:1022180000F05EFB05E040F22C13C2F2000300223E
:102228001A67062000F03CFC024640F22C13C2F26A
:1022380000035A60072000F033FC024640F22C13DA
:10224800C2F200039A60FB8803F00203002B09D056
:102258001C2000F025FC024640F22C13C2F20003B9
:102268009A6105E040F22C13C2F2000300229A6141
:10227800FB8803F00103002B21D01E2000F010FC86
:102288000346DBB203F01F03DAB240F22C13C2F2AA
:1022980000031A7740F22C13C2F200031B7F002BB5
:1022A8001AD147F60C13C0F600031B7803F01F037E
:1022B800DAB240F22C13C2F200031A770CE047F6A8
:1022C8000C13C0F600031B7803F01F03DAB240F2C8
:1022D8002C13C2F200031A77FB8803F00403002BC7
:1022E80018D00023FB6011E0FB681033184600F09B
:1022F800D7FB014640F22C12C2F20002FB680833F9
:102308009B0013445960FB680133FB60FB680B2B8F
:10231800EADD12E00023FB600CE040F22C12C2F26E
:102328000002FB6808339B00134400225A60FB68D4
:102338000133FB60FB680B2BEFDDFB8803F40063C4
:10234800002B02D000F02EFC0FE03620052100F013
:102358002BFB03467B817B8923F400737B817B897C
:10236800362005211A4600F037FB012000F098FEC0
:102378000420002100F0F6FA024640F22C13C2F2C3
:1023880000031A62002318461037BD4680BD00BFFF
:1023980080B400AF40F22C13C2F200031B6F184642
:1023A800BD465DF8047B704780B500AF0020002172
:1023B80000F0D8FA0346184680BD00BF80B582B049
:1023C80000AF78607B682A200B21012200F080FA98
:1023D8007B685B681E2000211A4600F00DFB083759
:1023E800BD4680BD80B483B000AF02460B46FA718B
:1023F800BB71FB795A1EB97947F6CC03C0F60003C6
:102408005B5C5B00134440F22C12C2F200020833FA
:102418009B0013445B6818460C37BD465DF8047B87
:10242800704700BF80B588B000AF78600B46FB707E
:102438000023FB770023BB777B681B78FB767B68E0
:102448005B791A4647F65013C0F6000333F812308A
:10245800BB837B685B785A1E40F22C13C2F20003E0
:10246800DA6640F22C13C2F20003DB6EBB76FB7E09
:10247800042B02D0FB7E072B01D1012300E00023AF
:102488007B767B681A7840F22C13C2F200031A7329
:102498007B68DB79002B0FD140F22C13C2F20003CA
:1024A8001B6A43F4800240F22C13C2F200031A6242
:1024B800BB8BDB08BB830BE040F22C13C2F200039A
:1024C8001B6A23F4800240F22C13C2F200031A6242
:1024D8007B681A7A40F22C13C2F200035A7340F256
:1024E8002C13C2F200031A6A7B681B7A1B0403F4DC
:1024F80040331A4340F22C13C2F200031A6240F22E
:102508002C13C2F200031B6A042000211A4600F0B3
:1025180073FABB8B2E2042F604011A4600F05CFACF
:10252800BB7E184600F020FBFA7E47F6CC03C0F6C7
:1025380000039B5C1A4613469B00134447F6EC02C3
:10254800C0F6000213442B200721052200F0C0F931
:102558002B200E21012247F60C13C0F6000300F0D1
:10256800B7F97A7E47F61013C0F600031344282003
:102578000B21012200F0ACF9FA7E47F6CC03C0F635
:1025880000039B5C1A4647F6D403C0F6000353F8D1
:10259800223028200C211A4600F02EFA7B68DB79BD
:1025A80019467B689B791A4647F62013C0F6000344
:1025B80049000A4433F81230272002211A4600F055
:1025C8000BFABA7E47F62C13C0F6000333F8123024
:1025D800272004211A4600F0FFF97B68DB79002BDD
:1025E80005D127200621642200F0F6F920E07B6857
:1025F8009B78042B0ED11023FB7327200621102271
:1026080000F0EAF907F10F0327202621012200F044
:102618005FF90DE02823BB7327200621202200F054
:10262800DBF907F10E0327202621012200F050F9DB
:10263800B97E7B68DB781A4647F63013C0F600038C
:1026480089000A4453F82230272008211A4600F04E
:10265800D3F97B685B899AB241F241039A4207D069
:102668007B685B899BB2272020211A4600F0B4F9C9
:102678007B685B899BB2002B05D12720202141F282
:10268800410200F0A9F947F61413C0F600031B68CD
:1026980023200C211A4600F0AFF9BB7E47F614122E
:1026A800C0F600025B0013449B88232004211A46CD
:1026B80000F092F97B689B79002B10D07B68DB795E
:1026C8001A4647F61C13C0F60003134421200021C4
:1026D800012200F0FDF80323FB770123BB77FB7E83
:1026E80003F00F02FB7E1B01DBB21A437B685B78A9
:1026F8009B0403F440231A43FB7F1B0503F4401398
:102708001A43BB7F5B0403F400331A437B681B79CD
:102718009B0503F0F8631A437B685B79DB06134378
:102728007B611F2000217A6900F066F97B689A783E
:102738007B685B781343DBB21B043B617B68DB7906
:102748005B031A463B69134343F4004240F22C13DF
:10275800C2F200031A6140F22C13C2F200031B6993
:10276800082000211A4600F047F9FB7803F001031E
:10277800002B07D040F22C13C2F200031B7F18462F
:1027880000F05AFEFB7803F00203002B1DD040F244
:102798002C13C2F200039A69BB7E1B0122FA03F3D1
:1027A8009BB25B089BB2184600F014F840F22C1359
:1027B800C2F200039A69BB7E1B0122FA03F39BB2A3
:1027C8005B089BB2184600F01FF800231846203714
:1027D800BD4680BD80B582B000AF0346FB8040F2A5
:1027E8002C13C2F20003FA889A8240F22C13C2F228
:1027F80000039B8A2E2041F604011A4600F0ECF8EB
:102808000837BD4680BD00BF80B582B000AF034623
:10281800FB8040F22C13C2F20003FA88DA8240F2FD
:102828002C13C2F20003DB8A182000211A4600F09C
:10283800D3F80837BD4680BD80B483B000AF0346E7
:10284800FB7140F22C13C2F200039A69FB79013B39
:102858001B0122FA03F39BB218460C37BD465DF8FC
:10286800047B704710B51418B4F5806F0B4606DC6E
:102878001146821E092000F02BF8002010BD4FF0F1
:10288800FF3010BD08B540F22C13C2F200031A69DC
:10289800104340EA81520021082000F0ADF80020E2
:1028A80008BD00BF10B40C4603461146112022464D
:1028B8005DF8044B00F032B80346002117200522CA
:1028C80000F02CB8034600211520052200F026B898
:1028D80000B583B0B9B17F2960F03F008DF80000E2
:1028E80085BF61F07F00C9098DF801108DF80100DE
:1028F8008ABF8DF80210022003206946FFF752FABA
:1029080003B05DF804FB60F07F008DF800006946B5
:102918000120FFF747FA03B05DF804FB00B583B068
:10292800B9B17F2940F040008DF8000085BF61F003
:102938007F00C9098DF801108DF801008ABF8DF854
:102948000210022003206946FFF776FA03B05DF80B
:1029580004FB8DF8000069460120FFF76DFA03B00B
:102968005DF804FB00B5042283B080B289B20DEB98
:102978000203FFF7D3FF20B14FF0FF3003B05DF83B
:1029880004FB9DF807009DF806309DF80520A0F58A
:10299800807003EB00209DF8043002EB002003EB6D
:1029A800002003B05DF804FB00B583B080B289B2A3
:1029B80002226B46FFF7B2FF20B14FF6FF7003B05B
:1029C8005DF804FB9DF801009DF8003003EB002042
:1029D80080B203B05DF804FB30B583B01446150A25
:1029E80089B202226B4680B28DF800408DF8015002
:1029F800FFF76EFF03B030BD70B582B04FEA122EFC
:102A08001446160C150E89B204226B4680B28DF856
:102A180000408DF801E08DF802608DF80350FFF753
:102A280057FF02B070BD00BF10B500210446042056
:102A3800FFF798FF84B94FF6FE73CFF247030340C0
:102A480040F22C14C2F2000423621A46042000212A
:102A5800BDE81040FFF7D0BF4FF6016204F4FF73E2
:102A6800CFF2470243F0010302401343E8E700BFF7
:102A7800024602210320FFF7AFBF00BF0246002134
:102A88000320FFF7A9BF00BF034600210120082249
:102A9800FFF71EBF0346002101200822FFF73EBFB3
:102AA80030B583B002AC04F8080D050A6B46042162
:102AB80002222D208DF80150FFF70AFF03256B46EF
:102AC800062101222D208DF800500024FFF700FF79
:102AD8006B46012206212D208DF80040FFF7F8FEF5
:102AE8000A212D20FFF73EFF03B030BD30B583B07B
:102AF800002302AC04F8083D02256B46022101229E
:102B08002C20FFF7E5FE6B46294601222C208DF884
:102B18000050FFF7DDFE03B030BD00BFFFF7E6BF92
:102B280010B5024682B00C462C200021FFF754FF56
:102B380002AB03F8044D062101222C20FFF7C8FE42
:102B480002B010BD10B5042104463620FFF70AFF75
:102B580040F400620CB920F4006236200421BDE87C
:102B68001040FFF749BF00BF10B582B06D2202AB1D
:102B780003F8082D40F6060104466B462E20012274
:102B8800FFF7A6FE2E2041F606012CB941F2076296
:102B9800FFF722FF02B010BD40F20762FFF71CFFEB
:102BA80002B010BD30B583B0012402AB03F8084D64
:102BB80003256B460021022236208DF80150FFF7CD
:102BC80087FE06214FF400422D20FFF705FF4FF442
:102BD8007A70FEF729FC204600F062FA002003B064
:102BE80030BD00BF70B582B0012402AB0326054694
:102BF80003F8084D00216B460222354036208DF837
:102C08000160FFF765FE6A01224312212D20FFF7BC
:102C1800E3FE204600F044FA02B070BD10B5002172
:102C280004460420FFF79EFE40F22C13C2F2000374
:102C380044B940F480221A6204200021BDE8104003
:102C4800FFF7DABE20F480221A6204200021BDE8D2
:102C58001040FFF7D1BE00BF10B540F22C14C2F2ED
:102C68000004236A020243F0804302211A202362EF
:102C7800FFF7B2FE226A04200021BDE81040FFF7EA
:102C8800BBBE00BF40F22C13C2F200031A6A38B967
:102C9800587742F48052042000211A62FFF7ACBE34
:102CA800012122F480525977042000211A62FFF78B
:102CB800A3BE00BF00B540F22C13C2F2000383B0DC
:102CC8001A6A78B922F000521A6202AB120E03F89F
:102CD800082D03216B4601220420FFF7F9FD03B0FC
:102CE8005DF804FB42F000521A62EEE710B50021CD
:102CF80004461A20FFF736FEC4F31304020D44EA13
:102D080002521A200021BDE81040FFF775BE00BF2F
:102D180040F22C13C2F2000358679967704700BF4E
:102D28002DE9704140F22C14C2F20004627F0023A6
:102D380085B019460F2084F85A2084F85430FFF7DC
:102D480011FE4205054603D5667F002E00F08780F8
:102D580015F4804646D0680541D515F4801640F034
:102D6800998031461020FFF71FFE984B8046314668
:102D780011200222FFF7D2FD637B002B00F0CB80ED
:102D8800C8F3090840F22C1315F00802A4F856807D
:102D9800C2F2000308D093F8581001F0200101F0A6
:102DA800FF00002900F0E68084F855204FF0000865
:102DB800617F40F22C160223C2F2000684F85430D8
:102DC800002940F0AB8005F4DE4248EA02020F20F9
:102DD800FFF712FEB36F13B106F15400984705B020
:102DE800BDE8708115F0800168D115F4003640F017
:102DF80081804FF41042C2F227422A40002AEED0C6
:102E08000F203146FFF7F8FD236A84F869609B00BC
:102E180040F1C58000F0F8FAEE0444BF082384F8B6
:102E2800543014D4280400F1BD80E90344BF0923B9
:102E380084F854300BD46A0144BF0A2384F8543010
:102E480005D4AB0240F1AE800B2384F85430A36F55
:102E5800002BC4D05E48984705B0BDE8708100F4E7
:102E68006063B3F5606F3FF473AF00F0E7F900F00B
:102E7800CBFA236A05F0F8059B0000F18980A36F5F
:102E8800032284F85420002B3FF462AF04F154006D
:102E980098475DE700F0D2F900F0B6FA236A40F2ED
:102EA8002C109900C2F200005DD4836F032280F8D1
:102EB8005420002B93D05430984790E7F8220F20E5
:102EC8003146FFF799FD94F8552040F22C13C2F2D1
:102ED800000342B15A7F83F8556022B993F86930EC
:102EE8000BB100F0ABF9636F012284F85420002B7A
:102EF800B0D174E732460F20FFF77EFDA36F04229E
:102F080084F854200BB132489847002384F869307C
:102F180005B0BDE8708108F07F0833E70126324626
:102F28006B460F2003218DF80860FFF7F7FC9DF82A
:102F3800003023F07F0203F04003B2EB430F3BD095
:102F4800216A11F0005131D0A36F0BB12048984786
:102F580000F06CF9A8B100F071F900F055FA236A95
:102F68009A007FF53CAF00214FF480720D20FFF7E7
:102F780033FD34E783F8550083F869004FF00808FB
:102F880016E70321012202AB0D20FFF7A1FC26E77B
:102F980031464FF480720D20FFF71EFDD8E600F091
:102FA8004DF937E7032384F8543050E74FF4807223
:102FB8000D20FFF711FDC7E705F4C04248EA0202F9
:102FC80000210F20FFF718FDBAE700BF8401002099
:102FD8008001002070B5044682B014F001066B46EB
:102FE8004FF026002BD131460222FFF797FC9DF8BF
:102FF80000309DF801E031462EF0150E23F0400612
:1030080026206B4602228DF801E08DF80060FFF75C
:103018005FFCA30711D50F242A2101226B46362015
:103028008DF80040FFF754FC00246B4636202A2117
:1030380001228DF80040FFF74BFC02B070BD002163
:103048000222FFF76BFC9DF8012002AB012142F040
:10305800140203F8072D26200A46FFF739FC6B46B1
:10306800022101223620FFF759FC9DF800606B46CB
:1030780066F07B060221012236208DF80060FFF7FA
:1030880027FC01264FF0100E6B462821022236201D
:103098008DF800E08DF80160FFF71AFCB9E700BF72
:1030A80010B582B004466B46362000210222FFF795
:1030B80035FC0D2C11D8DFE804F02807311010106A
:1030C800103A491010565D1F9DF80120002322F088
:1030D80001028DF801208DF800306B460021012295
:1030E8003620FFF7F5FB01210A460DEB01033620D8
:1030F800FFF7EEFB02B010BD9DF8003023F030035F
:1031080043F020038DF80030E7E79DF8003023F006
:10311800030343F001038DF80030DEE79DF800302B
:1031280023F0030343F002038DF80030D5E79DF840
:1031380000209DF8013022F04C0242F0480263F072
:103148007F038DF800208DF80130C6E79DF8002038
:103158009DF8013022F04C0203F07F038DF8002027
:103168008DF80130B9E79DF8013043F002038DF87E
:103178000130B2E79DF8013023F002038DF80130E9
:10318800ABE700BF024601210A20FFF735BC00BFAC
:1031980010B5830741BF40F22C13C2F2000301228D
:1031A80083F8692059BF022206238222862310F061
:1031B800010482B017D002AC04F8083D00216B4628
:1031C80001220D20FFF784FB6B460F20032101220B
:1031D800FFF7A4FB9DF8003003F0080303F0FF009D
:1031E8006BB902B010BD02AB03F8082D21466B463F
:1031F80001220D20FFF76CFB204602B010BD6B4684
:103208000122002140240D208DF80040FFF760FBCB
:103218000020FFF797FC40F22C13C2F200030022B3
:1032280083F869204FF0FF30DBE700BF08B50221C3
:103238000F20FFF7B9FB00F0100008BD70B582B091
:103248004023002102AC0E2004F8083DFFF78AFB5A
:103258000646FEF771FE002105460A460E20FFF7D6
:10326800CBFB6B46002101220D20FFF731FB4FF607
:10327800F872C2F2274200210F20FFF7BDFB00F0D1
:1032880011F8324600210E20FFF7B6FB2846FEF75C
:1032980067FE40F22C13C2F20003002283F8692073
:1032A80002B070BD00B585B001226B460F20032126
:1032B800FFF734FB9DF8003023F07F0203F0400352
:1032C800B2EB430F07D0012204AB03F8082D0D2001
:1032D8000321FFF7FDFA05B05DF804FB30B504469D
:1032E80083B000258DF80050FFF7DCFFA4B1294614
:1032F8004FF440720D20FFF76FFB6B460F20032140
:103308000122FFF70BFB9DF8003003F0080303F0E0
:10331800FF0053B903B030BD21464FF480720D2031
:10332800FFF75AFB204603B030BDFFF787FF294659
:103338000D204FF48072FFF74FFB4FF0FF30E9E7A5
:1033480070B582B004466B46042003210122FFF7C2
:10335800E5FAACB940F22C14C2F20004226A9DF8D6
:1033680000506B4622F0805625F0100503210122FB
:10337800042026628DF80050FFF7AAFA02B070BD4B
:10338800224640F22C140C200021C2F20004FFF760
:1033980023FB226A9DF800506B4642F0805645F0A8
:1033A8001005E3E770B506460D46FEF7C5FD00219A
:1033B80004460E20FFF7D6FA40EA06020DB920EAC5
:1033C80006020E200021FFF717FB2046BDE87040DB
:1033D800FEF7C6BD30B583B0022302AC054604F83B
:1033E800083D2F206B4600210122FFF771FA45B1F5
:1033F80001256B462A462F2000218DF80050FFF743
:1034080067FA03B030BD00BF10B582B002ACE0234C
:1034180004F8083D03216B4601223620FFF758FACD
:10342800F0246B460321012236208DF80040FFF777
:103438004FFA02B010BD00BF10B582B00DF10703FE
:1034480004460E2101222B20FFF768FA9DF8072079
:1034580004F01F0422F01F0214430DF107030E218C
:1034680001222B208DF80740FFF732FA02B010BD79
:1034780080B483B000AF0346FB714FF46143CEF2D2
:10348800000397F907205209F97901F01F0101207B
:1034980000FA01F143F822100C37BD465DF8047BB1
:1034A800704700BF80B483B000AF0346FB714FF490
:1034B8006143CEF2000397F907205209F97901F028
:1034C8001F01012000FA01F1203243F822100C37C5
:1034D800BD465DF8047B704780B584B000AF04201A
:1034E800FEF77CFB2020FEF713FA01F077FBB860AB
:1034F800FEF7F0FA01F08EFA78607B68002B33DA79
:103508000F23FB6017E0FB6803F00103002B06D0D4
:103518000020FEF7A9FB0120FEF760FB05E0002074
:10352800FEF75CFB0120FEF79FFB4AF22010C0F279
:103538000700FDF779FFFB685A1EFA60002BE2D1FD
:103548000023FB604AF22010C0F20700FDF76CFF71
:103558000420FEF789FB45F6C040C0F21500FDF7D0
:1035680063FF4FF0FF3318E00820FEF7D1F901F0B0
:1035780035FBB86040F2C013C2F2000300221A7093
:1035880000F0EAFE01F032FB4FF4FA704FF47A7162
:1035980001F02CFD00F01CFFBB6818461037BD4633
:1035A80080BD00BF80B500AF012002F0ADFC80BD3A
:1035B80080B500AFFFF7B4FB4FF44060C4F20100E0
:1035C800202103F0CDFC0346012BF3D080BD00BFC2
:1035D80080B59CB000AF0023FB660123BB660023C7
:1035E8007B664FF000024FF00003C7E916234FF047
:1035F80000024FF00003C7E914230420FEF7EEFA97
:10360800FEF778FBFEF788FB44F24020C0F20F007B
:10361800FDF70AFF0020FEF7DBF81720FFF742FF4F
:103628000420FEF7DBFAFFF757FF0346B3F1FF3F2D
:1036380004D10420FEF718FB002362E01423FB6684
:1036480017E0FB6E03F00103002B06D00020FEF705
:10365800C5FA0120FEF708FB05E00020FEF704FB91
:103668000120FEF7BBFA48F2A060C0F20100FDF7A6
:10367800DBFEFB6E5A1EFA66002BE2D10023FB66C6
:103688000420FEF7ABFA0420FEF7A8FA1720FFF78C
:10369800EFFE0120FEF79CF845F2555003F068FB59
:1036A800022003F075FB03F091FB03F081FB00207F
:1036B800FEF78EF802F004FB0120FEF789F801F00E
:1036C8008BF80346002B00D0FEE77B6E002B17D14A
:1036D80001F0AAF80346002B0AD0022387F8283005
:1036E800BB6E002B02D00023BB6601E00123BB6642
:1036F80001F08CF80346022B02D101237B66D4E744
:10370800D3E718467037BD4680BD00BF80B592B07C
:1037180000AF786039607B685B78092B00F26384BE
:1037280001A252F823F000BF59370008E138000819
:10373800B9390008EF3F0008EF3F0008B53A000824
:10374800A53B0008C33B00082B3800082D390008AA
:103758007B681B78002B00D062E000237B64182074
:10376800FFF762F97B68012283F820207B68B3F8B1
:103778003E321846FFF77CF97B6803F50C73184650
:10378800FFF782F97B68B3F83E32DAB27B6883F8D8
:10379800C4217B68B3F83E321B0A9BB2DAB27B685D
:1037A80083F8C5217B68002283F8002A7B68012200
:1037B8001A707B6809225A707B6803F5A4727B68CB
:1037C80003F50C73104619460822FDF7F9FC7B68CF
:1037D80001229A777B689B7F1846FFF76BFA0020D7
:1037E800FFF750FA0520FFF737FA40F641137B64DC
:1037F800FEF7CEFD0346002B03D07B6C43F48053C9
:103808007B647B689B7A042B03D17B6C43F0800339
:103818007B647B6C9BB218460521FFF781F900BFDA
:10382800E2E3142002F094F8B863BB6B1B78042B16
:1038380003D07B6801225A60D6E37B6800225A6075
:103848007B68002283F878227B689A787B685A70B4
:103858007B6800229A707B68002283F860234FF40B
:103868000060C4F20100102103F0A2FB40F2C01373
:10387800C2F200030022C3F8FC290120FEF758F920
:103888004FF47A70FDF7D0FD4FF40060C4F20100E8
:10389800102103F07FFB00BF40F2C013C2F2000307
:1038A800D3F8FC39002BF7D000200021FFF75AF895
:1038B80002464FF49873CDF6CA639A4201D00023AA
:1038C8007B630020FEF734F90020FFF73BF98020E6
:1038D8000121FFF767FD87E37B689B78022B03D004
:1038E8007B689B78092B15D17B6893F87832002B7D
:1038F80010D07B6802225A607B6808225A707B6865
:103908009B78092B03D17B68012283F86023FFF79A
:1039180005F969E37B689A787B685A707B680022AE
:103928009A7061E37B68C52283F846217B6893F827
:103938003C325A1CD1B27A6882F83C127A6882F812
:1039480047317B6803F5A3730C2019460022FEF764
:1039580089FF0C200021FEF795FF7B681B6C184639
:10396800FFF7C4F90220FFF713FC7B689B6C9BB23E
:103978001846FFF7E5FC7B689B8B1846FEF744FF6B
:103988007B6893F847217B6883F875227B6802225D
:1039980083F871227B68012283F878227B680522EC
:1039A8005A707B680922DA707B6801225A601BE32F
:1039B8007B68012283F878227B68612283F8CA2118
:1039C8007B6803F601227B6803F5206310461946DD
:1039D80002F0CEFA7B6803F2CB127B6803F6012370
:1039E800104619460422FDF7EBFB7B681222A3F868
:1039F8003A227B68412283F8C1217B68882283F8B8
:103A0800C2217B6893F83C325A1CD1B27A6882F89A
:103A18003C127A6882F8C3317B68022283F87122EB
:103A28007B68B3F83A3218460021FEF72BFF7B6813
:103A38005B6C9BB21846FFF783FC7B68DB6B184610
:103A4800FFF754F97B68B3F83A227B6803F2C11395
:103A5800104619460022FEF705FF7B6893F871327D
:103A68001846FFF795FB7B689B8B1846FEF7CCFE44
:103A78007B6893F8C3217B6883F875227B68692289
:103A880083F8CA217B6893F83C227B6883F8C321BA
:103A98007B6805225A707B680222DA707B680122F3
:103AA8005A607B68002283F881229DE2052001F09C
:103AB8004FFF38633B6B1B78012B19D03B6B1B788E
:103AC800042B03D17B68012283F880223B6B1B788F
:103AD800052B09D17B68002283F871223B6B9B7E02
:103AE8007868194601F0C8FA7B6801225A607BE2BF
:103AF8007B6800225A607B68DB78032B09D17B68DE
:103B080002225A607B6802229A707B6801225A70EE
:103B18006AE27B6893F88032002B07D0786801F05E
:103B28008BFA7B68002283F880225DE27B68DB7871
:103B3800022B23D17B6803F2C1130D2019461E22E4
:103B4800FEF790FE0120FEF7FDFF80200021FFF721
:103B580029FC3B6B1A697B68C3F860227B6893F881
:103B6800C6217B6883F840227B6893F8C7217B686D
:103B780083F841227B68022283F860237B6807224E
:103B88005A707B6893F87132002B02D10020FFF73E
:103B9800A5FB7B68002283F8712225E27868002162
:103BA8004FF000024FF0000302F0BEF97B680722D5
:103BB8005A703B68002B00D116E23B68072B00F2D5
:103BC800108201A252F823F0D93F0008EB3F000809
:103BD800333C0008EB3F0008C73F00080B3C0008D7
:103BE800D93F0008F13B0008062001F0B1FE7B68D0
:103BF80007225A700020FFF771FB7B6800225A6089
:103C0800F0E1072001F0A4FEF862FB6A9B7E786869
:103C1800194601F031FA7B6807225A700020FFF735
:103C28005DFB7B6800225A60DCE1082001F090FE11
:103C3800B86200233B7400237B740023BB74002309
:103C4800FB7400233B7500237B750023BB750023A1
:103C5800FB7500237B6200233B6400233B627B6887
:103C6800002283F87922BB6A5B7E8C2B32D08C2BA6
:103C780002DC882B43D057E0C82B16D0CC2B53D16D
:103C8800BB6A253307F11002104619460822FDF7D2
:103C980097FABB6A93F82D303B64BB6A2D33FB63FC
:103CA80008233B621523FB613EE0BB6A1F3307F123
:103CB8001002104619460822FDF782FABB6A93F8EB
:103CC80027303B64BB6A2733FB6308233B620F231F
:103CD800FB6129E0BB6A253307F11002104619463B
:103CE8000222FDF76DFABB6A93F827303B64BB6A82
:103CF8002733FB6302233B620F23FB6114E0BB6A9B
:103D08001F3307F11002104619460222FDF758FA30
:103D1800BB6A93F821303B64BB6A2133FB630223FF
:103D28003B620923FB6100BF7B6893F87232002B6A
:103D38000AD07B6893F87332002B05D0786801F0BD
:103D48007BF900233B6039E17B68002283F872220B
:103D58003B6C7B627B6A502B41D06A2B00F0C7809A
:103D6800202B40F01A817B681B78012B36D17B68A9
:103D780002225A703A7C7B6883F8C6217A7C7B6879
:103D880083F8C721FB6B5A787B6883F8C821FB6BE3
:103D98009A787B6883F8C921FB6B01331B781A4634
:103DA800FB6B02331B781B029BB213449AB27B68ED
:103DB800A3F838227B68B3F838321846FEF75EFE5F
:103DC8007B6800221A707B6800225A667B68002292
:103DD80083F878227B6800225A60E5E0E4E0BB6A59
:103DE8005A697B681B6D1A447B681A667B681B6E70
:103DF8001846FFF7C7F914201E21FEF743FD0120DE
:103E0800FFF7C6F90346002B14D07B6801225A70CD
:103E18007B6809229A700020FEF794FE7B680022D6
:103E280083F871227B68D3F8AC325A1C7B68C3F8DC
:103E3800AC22B9E0BB6A1A697B68D3F86032D31A3E
:103E4800BB617B6803F601231846B96902F0BAF82A
:103E58000346BB607B689B8B1A467B681B6D1B0205
:103E68001A44BB6A1B69C3F30803D31AFB6007F142
:103E780008030A2019462822FEF7F4FC7B6893F809
:103E8800C3217B6883F875227B680322DA707B681C
:103E980002225A607B6808225A707B68012283F8E4
:103EA80060237B68D3F8A4325A1C7B68C3F8A42229
:103EB8007B6893F83C320133DAB27B6883F83C22A2
:103EC80010200221FEF770FD03461B099BB21A461B
:103ED8007B68C3F85C237B68002283F871227B68C7
:103EE800002283F872227B6809229A705CE0FB6BDF
:103EF80001331B781A467B68C3F884227B68D3F8A1
:103F08008422FB6B02331B781B021A447B68C3F8BC
:103F180084227B68D3F88422FB6B03331B781B0451
:103F28001A447B68C3F884227B68D3F88422FB6B2D
:103F380004331B781B061A447B68C3F88422BB6AC7
:103F48009A7E7B6893F82C339A421FD0786800F0E9
:103F58005FFB7B680122C3F85023BB6A9A7E7B68AB
:103F680083F82C233B7C1A467B7C1B021A447B6813
:103F7800C3F858237B6893F830321A467B6893F865
:103F880031321B021A447B68C3F854237B68012230
:103F98005A707B6802229A7006E07B6807225A7082
:103FA8000020FFF79BF900BFBB6A1B7E03F02003CC
:103FB800002B03D0092001F0CBFC13E012E01A20FB
:103FC80001F0C6FC786801F037F800233B6009E08F
:103FD8007B685B68002B03D17B6801225A6001E093
:103FE80000E000BF00E000BF7B685B681846483708
:103FF800BD4680BD00000000B0B588B000AF786055
:1040080000237B614FF00003FB614FF00003BB61AD
:1040180000233B610023FB607868FCF7E9FE034658
:10402800FB61F8694FF08241FCF736FF03461846FA
:104038004FF00001C4F2A531FCF7E2FF0346184631
:10404800FCF796FA02460B4610461946FDF75CF94E
:1040580002460B4610461946FCF778FD0346FB60FE
:10406800F8694FF08241FCF717FF03461C46FA68CF
:1040780013465B0013441B011846FCF7B9FE0346C0
:1040880020461946FCF700FE0346FB6140F2C013C8
:10409800C2F200037A6940F6082101FB02F21344D8
:1040A8000833DB79002B12D1F86943F28541C4F259
:1040B8000061FCF7F1FE0346FB61F8694FF48A41A1
:1040C800C4F62801FCF7E0FD0346FB6132E040F24C
:1040D800C013C2F200037A6940F6082101FB02F21C
:1040E80013440833DB79012B12D1F86943F27B4181
:1040F800C4F28041FCF7D0FE0346FB61F8694FF437
:104108008C41C4F2A861FCF7BFFD0346FB6111E0D6
:10411800F86943F2C351C4F20031FCF7BDFE03460F
:10412800FB61F8694FF48C41C4F2A861FCF7ACFD5F
:104138000346FB6140F2C013C2F200037A6940F6FD
:10414800082101FB02F213440833DB791A4647F6CB
:104158001C13C0F600039B5C3B6140F2C013C2F223
:1041680000037A6940F6082101FB02F21344083380
:104178009B78043B302B00F2878001A252F823F091
:1041880089420008914200089142000891420008C3
:1041980069420008914200089142000891420008D3
:1041A8004D420008914200089142000891420008DF
:1041B800914200089142000891420008914200088B
:1041C800814200089142000891420008914200088B
:1041D8005D4200089142000891420008914200089F
:1041E800914200089142000891420008914200085B
:1041F800914200089142000891420008914200084B
:104208007942000891420008914200089142000852
:104218005542000891420008914200089142000866
:10422800914200089142000891420008914200081A
:10423800914200089142000891420008914200080A
:10424800714200084FF08B43BB611DE04FF08A4379
:10425800BB6119E04FF00003C4F2C043BB6113E037
:104268004FF08943BB610FE04FF08843BB610BE01F
:104278004FF08743BB6107E04FF08643BB6103E023
:104288004FF08543BB6100BF40F2C013C2F2000388
:104298007A6940F6082101FB02F2134408335B787F
:1042A800012B12D13869FCF7A3FD03461846B969FA
:1042B800FCF7EAFC0346184645F6EA31C3F67E7178
:1042C800FCF7EAFD0346BB6111E03869FCF790FD95
:1042D80003461846B969FCF7D7FC0346184644F26A
:1042E800B311C3F68271FCF7D7FD0346BB61B86909
:1042F800FCF73EF904460D46F869FCF739F9024621
:104308000B46104619464FF000024FF48043C4F2A2
:104318008F03FCF7ABFA02460B4620462946FBF70B
:10432800C9FF02460B461046194609A3D3E90023E4
:10433800FCF79CFA02460B4610461946FCF706FCA9
:104348000346103318462037BD46B0BDAFF3008092
:104358000D71AC8BDB68F03F80B582B000AF0023F5
:104368007B6040F2C013C2F200037A6840F608216D
:1043780001FB02F2134400221A7040F2C013C2F289
:1043880000037A6840F6082101FB02F21344002278
:104398005A704FF48140C0F202400121FFF702F841
:1043A8000320FEF717FE45F2C100C0F6000045F2F3
:1043B800D921C0F60001FEF7ABFC43F21570C0F638
:1043C800000001F069FC002318460837BD4680BD8F
:1043D8002DE9B04384B000AF00237B604FF416731F
:1043E800FB604FF4FA73BB6040F2C013C2F20003E3
:1043F8007A6840F6082101FB02F2134408339B78DF
:10440800342B07D1FB6803F5C873FB60BB6803F561
:10441800C873BB601620FFF7EFFD024640F2C013D9
:10442800C2F20003796840F6082000FB01F10B4452
:1044380048331A601420FFF7DFFD024640F2C0132C
:10444800C2F20003796840F6082000FB01F10B4432
:1044580040335A60F868FCF779F802460B46104674
:10446800194600F081F8034618464FF000014FF452
:104478007E42CFF6FF724FF0FF0302EA000203EA22
:1044880001034FEA122848EA03684FEA2329424603
:1044980040F2C013C2F20003796840F6082000FB1E
:1044A80001F10B4448335A60B868FCF74FF80246EC
:1044B8000B461046194600F057F8034618464FF0C9
:1044C80000014FF47E42CFF6FF724FF0FF0302EA7D
:1044D800000203EA0103140A44EA03641D12224697
:1044E80040F2C013C2F20003796840F6082000FBCE
:1044F80001F10B4450331A6040F2C013C2F20003BA
:104508007A6840F6082101FB02F2134448331B681D
:10451800FA68D21A40F2C013C2F20003796840F672
:10452800082000FB01F10B4440331A6040F2C0132D
:10453800C2F200037A6840F6082101FB02F2134434
:1045480040335B68BA68D21A40F2C013C2F2000363
:10455800796840F6082000FB01F10B4438335A60B3
:104568001037BD46BDE8B08380B586B000AFC7E957
:104578000001D7E900010EA3D3E90023FCF776F97F
:1045880002460B46104619460BA3D3E90023FCF755
:104598006DF902460B46C7E90423D7E90401FCF785
:1045A800FDFA0346FB60FB6818461837BD4680BD18
:1045B800FA48CE3B1835B13D0000000080842E41FA
:1045C80080B584B000AF78604FF000024FF0000370
:1045D800C7E902237868FBF7B9FF02460B46104685
:1045E800194609A3D3E90023FCF716F802460B463F
:1045F800C7E90223D7E90223104619461037BD46FA
:1046080080BD00BFAFF30080FA48CE3B1835B13DFE
:1046180090B58DB000AF78607B68D3F88432FB62C8
:10462800FB6A002B02DAFB6A5B42FB62F86AFFF75F
:10463800C7FF02460B46104619464FF000024FF0DE
:104648000003C3F6D073FBF7E7FF02460B46C7E942
:104658000623D7E906015CA3D3E90023FBF7DCFFB7
:1046680002460B46C7E90423D7E904014FF00002CC
:104678004FF00003CBF6E073FCF740FA0346002B3B
:1046880009D1D7E9040152A3D3E90023FCF754FA6E
:104698000346002B00D091E07B681C7AD7E904011F
:1046A800FCF79CFA02467B685B7A204611461A465C
:1046B800FDF766FC02460B46D7E90401FBF7F8FD57
:1046C80002460B46C7E904233B693B617B6923F03B
:1046D80000437B6140F2A813C2F20003D7E904014A
:1046E800C3E900017B68D3F820335A1C7B68C3F800
:1046F80020237B68D3F82433591C7A68C2F8241322
:104708007A685733DB00D118D7E90423C1E90023BD
:104718007B68D3F82433082B03D17B680022C3F8C5
:1047280024237B68D3F82833082B3FD14FF00002AD
:104738004FF00003C7E908234FF000024FF00003D1
:10474800C7E902230023BB6211E07A68BB6A5733CA
:10475800DB001344D3E90023D7E90801FBF7AAFDDE
:1047680002460B46C7E90823BB6A0133BB627B6874
:10477800D3F82823BB6A9A42E7DC7B68D3F828334E
:104788001846FBF7E3FE02460B46D7E90801FCF79B
:104798006DF802460B46C7E9082340F2B013C2F28F
:1047A8000003D7E90801C3E9000106E07B68D3F8F4
:1047B80028335A1C7B68C3F8282300BF3437BD460A
:1047C80090BD00BFAFF300800000001319DDB141B8
:1047D800000000000088D34080B400AF40F2C0134E
:1047E800C2F20003D3F85033002B08D040F2C013B4
:1047F800C2F200030022C3F85023012300E0002383
:104808001846BD465DF8047B704700BF80B400AF12
:1048180040F2C013C2F2000393F860331846BD4655
:104828005DF8047B704700BF80B400AF40F2C0134E
:10483800C2F2000393F86033012B08D140F2C01391
:10484800C2F20003002283F86023012300E0002362
:104858001846BD465DF8047B704700BF80B582B03E
:1048680000AF00237B6040F2C013C2F200037A68F5
:1048780040F6082101FB02F21344603300225A601B
:1048880040F2C013C2F200037A6840F6082101FB27
:1048980002F2134403F50E7300221A710120FEF789
:1048A80099FD40F2C013C2F200037A6840F608216D
:1048B80001FB02F2134403F50E7300221A7140F251
:1048C800C013C2F200037A6840F6082101FB02F225
:1048D800134403F54A73FF221A7140F2C013C2F25F
:1048E80000037A6840F6082101FB02F2134403F53D
:1048F8004A7300221A6040F2C013C2F200037A68B9
:1049080040F6082101FB02F2134403F54873002224
:104918005A6040F2C013C2F200037A6840F60821D8
:1049280001FB02F2134403F5287300225A6040F297
:10493800C013C2F200037A6840F6082101FB02F2B4
:10494800134403F52A7300221A6040F2C013C2F21E
:1049580000037A6840F6082101FB02F2134403F5CC
:104968002A7300225A6040F2C013C2F200037A6828
:1049780040F6082101FB02F2134403F52C730022D0
:104988001A6040F2C013C2F200037A6840F60821A8
:1049980001FB02F2134403F546714FF000024FF099
:1049A8000003C1E9002340F2C013C2F200037A6891
:1049B80040F6082101FB02F2134403F54873002274
:1049C8001A6040F2C013C2F200037A6840F6082168
:1049D80001FB02F2134403F54E714FF000024FF051
:1049E8000003C1E9002340F2C013C2F200037A6851
:1049F80040F6082101FB02F2134403F550714FF011
:104A080000024FF48043C4F28F03C1E90023083742
:104A1800BD4680BD80B582B000AF00237B6040F208
:104A2800C013C2F200037A6840F6082101FB02F2C3
:104A3800134400221A7040F2C013C2F200037A68CD
:104A480040F6082101FB02F2134403F51E7300220D
:104A58001A7040F2C013C2F200037A6840F60821C7
:104A680001FB02F2134403F51C7300225A7140F251
:104A7800C013C2F200037A6840F6082101FB02F273
:104A8800134403F5487300225A6040F2C013C2F27F
:104A980000037A6840F6082101FB02F2134403F58B
:104AA8004A7300221A6041F60700FDF741FB38609F
:104AB8003B68002B02D04FF0FF338BE0FFF7CEFEB0
:104AC80040F2C013C2F200037A6840F6082101FBE5
:104AD80002F2134403F50E734DF6CA62DA8040F20F
:104AE800C013C2F200037A6840F6082101FB02F203
:104AF800134403F51C7300221A7140F2C013C2F26A
:104B080000037A6840F6082101FB02F2134403F51A
:104B18001C7300225A7040F2C013C2F200037A6874
:104B280040F6082101FB02F2134403F51C7300222E
:104B38009A7040F2C013C2F200037A6840F6082166
:104B480001FB02F2134403F51E7300225A7040F26F
:104B5800C013C2F200037A6840F6082101FB02F292
:104B6800134403F51E7300229A7001F041F840F2D5
:104B7800C013C2F200037A6840F6082101FB02F272
:104B88001344183300229A717B6840F6082202FB0E
:104B980003F303F50C7240F2C013C2F2000313448E
:104BA8001846FDF777FF40F66043C2F200037A68C3
:104BB800002143F8221040F2C013C2F200037A68C1
:104BC80040F6082101FB02F2134403F55873002252
:104BD8001A70002318460837BD4680BD80B500AF5F
:104BE800FDF7E2FB0346184680BD00BF80B586B0DE
:104BF80000AF47F25462C0F600023B4610685168A5
:104C080003C312891A8000233B610323FB6000233E
:104C18007B613A7840F2C013C2F20003396940F66A
:104C2800082000FB01F10B4408331A70FA7840F2AF
:104C3800C013C2F20003396940F6082000FB01F1F5
:104C48000B4408335A71FA7840F2C013C2F20003D9
:104C5800396940F6082000FB01F10B4408331A714A
:104C68007A7840F2C013C2F20003396940F608208E
:104C780000FB01F10B4408335A70BA7840F2C013B4
:104C8800C2F20003396940F6082000FB01F10B4429
:104C98000833DA713A7940F2C013C2F20003396975
:104CA80040F6082000FB01F10B4408339A707A792A
:104CB80040F2C013C2F20003396940F6082000FB35
:104CC80001F10B440833DA70BA7940F2C013C2F22A
:104CD8000003396940F6082000FB01F10B44083352
:104CE8009A7140F2C013C2F200033A6940F60821F3
:104CF80001FB02F21344103300221A703A8940F281
:104D0800C013C2F20003396940F6082000FB01F124
:104D18000B4410335A8040F2C013C2F200033A69C0
:104D280040F6082101FB02F213440833DB79022B19
:104D38000DD140F2C013C2F200033A6940F60821CF
:104D480001FB02F21344103301225A700CE040F2C6
:104D5800C013C2F200033A6940F6082101FB02F2CF
:104D68001344103300225A703B6940F6082202FBB4
:104D780003F303F1080240F2C013C2F200031A441D
:104D8800FB68DBB210461946FDF74CFB3B78194629
:104D980047F68812C0F600020B465B000B449B00E6
:104DA80013441A7840F2C013C2F20003396940F67E
:104DB800082000FB01F10B4410331A717A7840F295
:104DC800C013C2F20003396940F6082000FB01F164
:104DD8000B4408331B7810461946FDF703FB78612E
:104DE8007B69002B03D07B69B3F1FF3F0FD13B7880
:104DF80019467B78581E47F68812C0F600020B4603
:104E08005B000B4403449B0013445B687B6140F2E6
:104E1800C013C2F200033A6940F6082101FB02F20E
:104E2800134410335B78012B0DD140F2C013C2F24A
:104E380000033A6940F6082101FB02F213441033DB
:104E48007A699A6018E07B69FB72FA7AFB7A1B022E
:104E58001A43FB7A1B041A43FB7A1B0613431A46B0
:104E680040F2C013C2F20003396940F6082000FB83
:104E780001F10B4410339A6040F2C013C2F20003F0
:104E88003A6940F6082101FB02F2134410335B78BB
:104E98001846FDF7C3FE3B6940F6082202FB03F300
:104EA80003F1100240F2C013C2F2000313440433AA
:104EB8001846FDF783FAFB6803F00203002B32D192
:104EC8007B785A1E47F68413C0F6000333F8122085
:104ED80040F2C013C2F20003396940F6082000FB13
:104EE80001F10B4418339A8040F2C013C2F2000358
:104EF8003A6940F6082101FB02F2134418339B88F3
:104F08001846FDF767FC40F2C013C2F200033A6985
:104F180040F6082101FB02F2134418339B88184617
:104F2800FDF772FC52E07B781846FDF785FC0346D6
:104F38005B089AB240F2C013C2F20003396940F626
:104F4800082000FB01F10B4418339A8040F2C0138B
:104F5800C2F200033A6940F6082101FB02F2134449
:104F680018339B88002B31D17B785A1E47F684135F
:104F7800C0F6000333F8122040F2C013C2F2000357
:104F8800396940F6082000FB01F10B4418339A8078
:104F980040F2C013C2F200033A6940F6082101FB4F
:104FA80002F2134418339B881846FDF713FC40F2AD
:104FB800C013C2F200033A6940F6082101FB02F26D
:104FC800134418339B881846FDF71EFC3B79042BC5
:104FD80008D12020FCF79CFC0020FDF703FE0820E8
:104FE800FCF796FC1837BD4680BD00BF80B485B07D
:104FF80000AF786039600023FB6040F2C013C2F252
:105008000003FA6840F6082101FB02F2134420333A
:105018007A685A6040F2C013C2F20003FA6840F698
:10502800082101FB02F2134428333A681A60143746
:10503800BD465DF8047B704780B582B000AF7860EC
:105048007B685B6E5A1C7B685A667B6800225A60D4
:105058007B6801225A707B681B78002B03D17B6820
:1050680002229A7002E07B6809229A70FEF7E6F83D
:105078000837BD4680BD00BF80B582B000AF7860FC
:105088000B46FB707B6893F87232002B10D07B685C
:1050980093F87532FA789A420AD17B68DB78042B48
:1050A80002D10020FEF74CF97B68002283F87222B7
:1050B8000837BD4680BD00BFB0B5F4B022AF3B1D78
:1050C80018600023C7F84031002387F8A030002378
:1050D80087F8A130002387F8A230002387F8A3308F
:1050E800002387F8A4303B1D1B681B7887F84731DD
:1050F80040F2C013C2F20003D7F8402140F608215D
:1051080001FB02F2134403F51C731B78002B24D017
:10511800062387F8473140F2C013C2F20003D7F8DC
:10512800402140F6082101FB02F2134403F51C73E9
:1051380000221A7007F1A803184600F055FB6946CB
:1051480007F1B8028823084611461A46FCF738F8D2
:1051580007F1A8030FCB00F067FB97F84731012B45
:1051680040F0908007F1A0031846FDF7A5FB97F8DB
:10517800A0301A4697F8A1301B021A4497F8A230BB
:105188001B041A4497F8A3301B061A4407F10803B6
:105198001A6197F8A430DAB24FF0000307F108015A
:1051A800C1E9022307F10803D3E90223150000240B
:1051B80007F10803C3E9024507F10803D3E902012F
:1051C80007F108031B691A464FF00003121843EB56
:1051D800010307F10801C1E9022397F8A4301A0670
:1051E80007F108031B691B0A1A4407F108035A61EF
:1051F80040F2C013C2F20003D7F8402140F608215C
:1052080001FB02F2134403F51E7300225A7007F1E2
:10521800080300225A8007F1080301221A7007F1D7
:1052280008031A7807F108035A7007F10804694659
:1052380004F110028823084611461A46FBF7C0FFFE
:1052480094E80F0000F0F0FA40F2C013C2F2000335
:10525800D7F8402140F6082101FB02F2134403F578
:1052680028735B685A1C40F2C013C2F20003D7F8D7
:10527800401140F6082000FB01F10B4403F52873A8
:105288005A6020E097F84731062B1CD107F1080334
:1052980000225A8007F1080306221A7007F1080352
:1052A8001A7807F108035A7007F10804694604F1EF
:1052B80010028823084611461A46FBF781FF94E836
:1052C8000F0000F0B1FA07F5A477BD46B0BD00BFE6
:1052D800B0B5CEB022AF78600023C7F8A83000235D
:1052E80087F8A030002387F8A130002387F8A23080
:1052F800002387F8A330002387F8A430002387F819
:10530800AF30002387F8A7307B681B78022B40F06A
:10531800A2817B685A7840F2C013C2F20003D7F822
:10532800A81040F6082000FB01F10B4403F51C739C
:105338001A70022387F8AF307B685B887B817B68B3
:105348001B79412B26D0412B02DC022B19D041E0DE
:10535800612B1FD0C52B3DD17B685B880C2B03D1FB
:10536800072387F8AF300BE07B685B88122B03D1EB
:10537800072387F8AF3003E0632387F8AF302DE0C9
:105388002CE07B685B88052B03D1052387F8AF30B9
:1053980024E023E07B685B887F2B02D9632387F8AE
:1053A800AF307B685B7903F0CC03882B03D10923EA
:1053B80087F8A7300DE07B685B7903F0CC03CC2B32
:1053C80003D1152387F8A73003E00F2387F8A73008
:1053D80004E003E0632387F8AF3000BF97F8AF30ED
:1053E800052B07D097F8AF30072B03D097F8AF30CD
:1053F800022B45D107F1A0031846FDF763FA97F889
:10540800A0301A4697F8A1301B021A4497F8A23028
:105418001B041A4497F8A3301B061344BB6197F882
:10542800A430DAB24FF00003C7E90423D7E9042314
:1054380015000024C7E90445D7E90401BB691A46E9
:105448004FF00003121843EB0103C7E9042397F850
:10545800A4301A06BB691B0A1344FB617B685B888E
:1054680007F108021832104619460022FDF71AFA09
:10547800FDF7DCFE0346002B02D0032387F8AF308C
:1054880097F8AF303B723B7A7B7297F8AF30022BBC
:1054980059D140F2C013C2F20003D7F8A82040F651
:1054A800082101FB02F2134403F51E7301225A700E
:1054B80040F2C013C2F20003D7F8A82040F6082132
:1054C80001FB02F2134403F51C731B78002B0ED169
:1054D800694607F118028823084611461A46FBF761
:1054E8006FFE07F108030FCB00F09EF90DE0694647
:1054F80007F118028823084611461A46FBF760FE92
:1055080007F108030FCB00F049F940F2C013C2F2CB
:105518000003D7F8A82040F6082101FB02F2134443
:1055280003F52A731B685A1C40F2C013C2F2000329
:10553800D7F8A81040F6082000FB01F10B4403F54A
:105548002A731A605EE097F8AF30052B2BD16946B5
:1055580007F118028823084611461A46FBF730FE61
:1055680007F108030FCB00F05FF940F2C013C2F255
:105578000003D7F8A82040F6082101FB02F21344E3
:1055880003F52A731B685A1C40F2C013C2F20003C9
:10559800D7F8A81040F6082000FB01F10B4403F5EA
:1055A8002A731A602EE097F8AF30072B2AD1694684
:1055B80007F118028823084611461A46FBF700FE31
:1055C80007F108030FCB00F02FF940F2C013C2F225
:1055D8000003D7F8A82040F6082101FB02F2134483
:1055E80003F52A731B685A1C40F2C013C2F2000369
:1055F800D7F8A81040F6082000FB01F10B4403F58A
:105608002A731A6097F8AF30632B40F09A8040F203
:10561800C013C2F20003D7F8A82040F6082101FB06
:1056280002F213441833DB79002B40F08A80D7F854
:10563800A83040F6082202FB03F240F2C013C2F27F
:1056480000031344184600214FF000024FF00003F6
:1056580000F06AFC75E07B681B78042B1ED10423DC
:105668003B723B7A7B7200237B814FF000024FF044
:105678000003C7E904230023BB610023FB616946DB
:1056880007F118028823084611461A46FBF798FDC9
:1056980007F108030FCB00F0C7F852E040F2C0133F
:1056A800C2F20003D7F8A82040F6082101FB02F255
:1056B800134418339B79002B43D140F2C013C2F234
:1056C8000003D7F8A82040F6082101FB02F2134492
:1056D8001B78002B0DD040F2C013C2F20003D7F89C
:1056E800A82040F6082101FB02F213441B78012B85
:1056F80014D104233B7244237B7200237B816946C7
:1057080007F118028823084611461A46FBF758FD88
:1057180007F108030FCB00F087F812E0D7F8A8309C
:1057280040F6082202FB03F240F2C013C2F2000363
:105738001344184600214FF000024FF0000300F018
:10574800F3FBB037BD46B0BD80B483B000AF0023D3
:105758007B6040F2C013C2F200037A6840F6082169
:1057680001FB02F2134403F6F8139B78194640F242
:10577800C013C2F200037A68982000FB01F140F6DA
:10578800082000FB02F20A44134403F55C731B78FB
:1057980018460C37BD465DF8047B704784B080B569
:1057A80082B000AF07F1100C8CE80F0000237B607B
:1057B80040F2C013C2F200037A6840F6082101FBE8
:1057C80002F2134403F51663194607F110029823F1
:1057D800084611461A46FBF7F3FC0837BD46BDE8F4
:1057E800804004B0704700BF80B584B000AF7860D7
:1057F8000023FB607A6840F2C013C2F20003F96824
:1058080040F6082000FB01F10B4403F5166311462E
:105818001A469823084611461A46FBF7D1FC7868C1
:105828001037BD4680BD00BF84B080B582B000AFE0
:1058380007F1100C8CE80F0000237B603B7CFB70A9
:1058480000233B7440F2C013C2F200037A6840F6AA
:10585800082101FB02F2134403F6F8135B7819469A
:1058680040F2C013C2F200037A68982000FB01F1ED
:1058780040F6082000FB02F20A44134403F55C7367
:10588800194607F110029823084611461A46FBF7F5
:1058980097FC40F2C013C2F200037A6840F6082170
:1058A80001FB02F2134403F6F8135B78194640F241
:1058B800C013C2F200037A68982000FB01F140F699
:1058C800082000FB02F20A44134403F55C73FA78DB
:1058D8001A7040F2C013C2F200037A6840F6082139
:1058E80001FB02F2134403F6F8135B780133DAB2D2
:1058F80040F2C013C2F20003796840F6082000FBAA
:1059080001F10B4403F6F8135A7040F2C013C2F2C7
:1059180000037A6840F6082101FB02F2134403F6FB
:10592800F8135B780A2B0DD140F2C013C2F20003C2
:105938007A6840F6082101FB02F2134403F6F813D3
:1059480000225A700837BD46BDE8804004B0704751
:1059580080B584B000AF78600023FB6040F2C013CC
:10596800C2F20003FA6840F6082101FB02F2134470
:1059780003F6F8131B78BB6040F2C013C2F20003B1
:10598800B968FA68982000FB01F140F6082000FB8E
:1059980002F20A44134403F55C731B78002B10D100
:1059A80040F6C833C2F2000300221A7040F6C8332A
:1059B800C2F2000300225A7040F6C833C2F2000354
:1059C80012E140F2C013C2F20003B968FA689820E5
:1059D80000FB01F140F6082000FB02F20A441344E0
:1059E80003F55C735A7840F6C833C2F200035A7064
:1059F80040F2C013C2F20003B968FA68982000FBAD
:105A080001F140F6082000FB02F20A44134403F5B2
:105A18005C735A8840F6C833C2F200035A8040F2D9
:105A2800C013C2F20003B968FA68982000FB01F1BC
:105A380040F6082000FB02F20A44134403F55E73A3
:105A4800D3E9000140F6C833C2F20003C3E90201FA
:105A580040F2C013C2F20003B968FA68982000FB4C
:105A680001F140F6082000FB02F20A44134403F552
:105A780060731A6840F6C833C2F200031A6140F234
:105A8800C013C2F20003B968FA68982000FB01F15C
:105A980040F6082000FB02F20A44134403F5607341
:105AA8005A6840F6C833C2F200035A61BB689822AC
:105AB80002FB03F2FB6840F6082101FB03F31344E1
:105AC80003F5627240F2C013C2F200031A4440F6B2
