:020000040800F2
:1000000000000120C12B00087D070008C50700087B
:10001000E5070008ED070008F507000800000000EC
:10002000000000000000000000000000FD070008C4
:100030000908000800000000150800083D08000835
:10004000092C0008092C0008092C000821080008C8
:10005000092C0008092C00088D0800089D080008DC
:10006000092C0008A9080008092C0008092C000820
:10007000092C0008092C0008092C0008092C00088C
:10008000092C0008092C0008092C0008092C00087C
:10009000092C0008092C0008092C0008B9080008E0
:1000A000092C0008092C0008092C0008092C00085C
:1000B000092C0008092C0008092C0008092C00084C
:1000C000092C0008092C0008092C0008092C00083C
:1000D000092C0008092C0008092C0008092C00082C
:1000E00061080008092C0008092C00080000000025
:1000F0000000000000000000000000000000000000
:100100000000000000000000092C0008092C000875
:10011000092C0008092C0008092C0008092C0008EB
:10012000092C0008092C0008092C0008092C0008DB
:10013000092C00087508000881080008092C00082F
:10014000092C0008092C0008092C0008092C0008BB
:10015000000000000000000000000000000000009F
:10016000000000000000000000000000000000008F
:10017000000000000000000000000000000000007F
:10018000000000000000000000000000000000006F
:10019000000000000000000000000000000000005F
:1001A000000000000000000000000000000000004F
:1001B000000000000000000000000000000000003F
:1001C000000000000000000000000000000000002F
:1001D000000000000000000000000000000000001F
:0401E0005FF8E0F1F3
:1001E40008B540F21410074BC2F200001B1A062B8C
:1001F40000D808BD40F20003C0F20003002BF8D081
:100204009847F6E71701002008B540F2141040F2B1
:100214001413C2F20000C2F200031B1A9B1003EB7A
:10022400D373591000D108BD40F20002C0F200029D
:10023400002AF8D09047F6E710B540F21814C2F23D
:100244000004237873B9FFF7CBFF40F20003C0F238
:1002540000032BB142F67040C0F60000AFF30080FB
:100264000123237010BD00BF08B540F20003C0F2A3
:1002740000034BB142F6704040F21C11C0F600007E
:10028400C2F20001AFF3008040F21410C2F2000089
:1002940003682BB140F20003C0F2000303B1984796
:1002A400BDE80840B0E700BF40F20003C2F200031B
:1002B40000B585B01868694600F058F8431C06D0AC
:1002C400009B0198029A1844039B1044184405B0FB
:1002D4005DF804FB70B542F6884642F68845C0F6E0
:1002E4000006C0F60005761BB6101CBF043D0024B2
:1002F40005D0013455F8043F9847A642F9D142F697
:100304008C4642F68845C0F60005C0F60006761B0A
:1003140002F0ACFCB6101CBF043D002406D001342E
:1003240055F8043F9847A642F9D170BD70BD00BF8F
:1003340080B584B000AF7860FFF7B6FFF8607A68E4
:1003440044F6D353C1F26203A3FB02139B09BB60BF
:1003540000BFFFF7A9FF0246FB68D21ABB689A42A6
:10036400F7D3002318461037BD4680BD80B584B04E
:1003740000AF7860396000F005FB0346FB603B6822
:10038400002B0BD03B68FA681A603B6800225A6065
:100394003B6800229A603B680022DA60FB681846DA
:1003A4001037BD4680BD00BF80B582B000AF0A23C0
:1003B400FB7100F025F900F0B3F940F2B413C2F276
:1003C40000039B78442B2DD140F2B413C2F20003F6
:1003D400DB7803F0F003602B24D1002000F06EFDE5
:1003E40048F28040C0F21E00FFF7A2FF012000F097
:1003F40065FD48F28040C0F21E00FFF799FF00201F
:1004040000F016FD48F28040C0F21E00FFF790FF96
:10041400012000F00DFD48F28040C0F21E00FFF7FD
:1004240087FFDAE748F28040C0F21E00FFF780FF42
:100434000837BD4680BD00BF80B483B000AF03461B
:10044400FB714FF46053C4F20003FA7992B29A81BB
:1004540000BF4FF46053C4F200031B899BB203F046
:100464000103002BF5D04FF46053C4F200039B89C1
:100474009BB2FB71FB7918460C37BD465DF8047BD3
:10048400704700BF80B584B000AF03463960FB718C
:100494000023FB7303E000F033F80346FB73FB7B9C
:1004A400FF2BF8D14FF44060C4F201004FF48051A7
:1004B40002F05CF841F28830FFF73AFF0023FB7347
:1004C4000BE0FB7B3A6813441B78BB73BB7B184679
:1004D400FFF7B2FFFB7B0133FB73FA7BFB799A4294
:1004E400EFD34FF44060C4F201004FF4805102F0A6
:1004F4002FF841F28830FFF71BFF1037BD4680BD4F
:1005040080B582B000AF4FF44060C4F201004FF4F4
:10051400805102F02BF841F28830FFF709FF4420A4
:10052400FFF78AFF0020FFF787FF0346FB714FF4B4
:100534004060C4F201004FF4805102F009F841F226
:100544008830FFF7F5FEFB7918460837BD4680BDB5
:1005540090B585B000AF02460B46FA71BB71BB790A
:100564003B730023FB8103E0FFF7CAFF0346FB81D3
:10057400FB89FF2BF8D107F10C0301201946FFF783
:1005840081FF0023FB8103E0FFF7BAFF0346FB81F1
:10059400FB89FF2BF8D14FF44060C4F201004FF403
:1005A400805101F0E3FF41F28830FFF7C1FE44209F
:1005B400FFF742FF0023FB810DE0FC89FF20FFF7DA
:1005C4003BFF03461A4640F2B413C2F200031A5525
:1005D400FB890133FB81FB799BB2FA899A42ECD304
:1005E4004FF44060C4F201004FF4805101F0B0FFB9
:1005F40041F28830FFF79CFE1437BD4690BD00BF22
:1006040080B582B000AF4FF44060C4F201004FF4F3
:10061400007101F09DFF42F21070FFF789FE002384
:100624007B601AE0012000F003FC002000F046FC8F
:1006340049F2E030C0F20400FFF77AFE002000F037
:10064400F7FB012000F03AFC49F2E030C0F204006C
:10065400FFF76EFE7B6801337B607B68032BE1DD73
:10066400042000F0E5FB4FF44060C4F201004FF4B5
:10067400007101F07BFF4AF22010C0F20700FFF77F
:1006840057FE00237B601AE0012000F0D1FB00201C
:1006940000F014FC49F2E030C0F20400FFF748FE19
:1006A400002000F0C5FB012000F008FC49F2E03016
:1006B400C0F20400FFF73CFE7B6801337B607B687B
:1006C400032BE1DD042000F0B3FB00F031F800233C
:1006D4007B600CE040F2F403C2F200037A68134436
:1006E4001B781846FFF7A8FE7B6801337B607B68A4
:1006F400062BEFDD4FF44060C4F201004FF480514B
:1007040001F026FF41F28830FFF712FE4AF2201072
:10071400C0F20700FFF70CFE0837BD4680BD00BFDE
:1007240080B500AF09200121FFF712FF80BD00BF93
:1007340080B500AF4FF44060C4F201004FF4805123
:1007440001F006FF41F28830FFF7F2FD4FF47A70B2
:10075400FFF7EEFD4FF44060C4F201004FF4805106
:1007640001F004FF41F28830FFF7E2FD4FF47A70A4
:10077400FFF7DEFD80BD00BF80B400AFBD465DF86D
:10078400047B704780B48BB000AF78607B681B68D3
:100794007B627B685B683B627B689B68FB617B6810
:1007A400DB68BB617B681B697B617B685B693B6160
:1007B4007B689B69FB607B68DB69BB60FEE700BF0D
:1007C40080B400AF1EF0040F0CBFEFF30880EFF30A
:1007D40009808169004A104789070008FEE700BFC5
:1007E40080B400AFFEE700BF80B400AFFEE700BFF7
:1007F40080B400AFFEE700BF80B400AFBD465DF833
:10080400047B704780B400AFBD465DF8047B70473D
:1008140080B400AFBD465DF8047B704780B500AF7F
:10082400012001F05DF90346002B04D0012001F002
:1008340083F901F043F980BD80B400AF40F2EC13BA
:10084400C2F200031B685A1C40F2EC13C2F200030C
:100854001A60BD465DF8047B704700BF80B500AFE9
:10086400AFF300804FF4005001F0ACFF80BD00BF37
:1008740080B400AFBD465DF8047B704780B400AF20
:10088400BD465DF8047B704780B500AF00F032FFD1
:10089400012001F097FF80BD80B500AF022001F078
:1008A40091FF80BD80B500AF00F02AFF082001F061
:1008B40089FF80BD80B500AF00F022FF202001F049
:1008C40081FF80BD80B483B000AF03463960FB7103
:1008D40097F90730002B0EDA4FF46D43CEF2000384
:1008E400FA7902F00F02111F3A68D2B21201D2B2A1
:1008F4000B441A760CE04FF46143CEF2000397F9EF
:1009040007103A68D2B21201D2B20B4483F8002322
:100914000C37BD465DF8047B704700BF80B582B0DC
:1009240000AF78607B68B3F1807F01D301231AE0C4
:100934004EF21003CEF200037A6822F07F42013AAD
:100944005A604FF0FF300F21FFF7BCFF4EF2100347
:10095400CEF2000300229A604EF21003CEF200039E
:1009640007221A60002318460837BD4680BD00BF21
:1009740080B400AF4FF0FF331846BD465DF8047BEA
:10098400704700BF80B400AF40F2EC13C2F2000322
:100994001B681846BD465DF8047B704780B500AF00
:1009A40040F21013C2F200031A6844F6D353C1F2A2
:1009B4006203A3FB02139B091846FFF7AFFF03462C
:1009C400002B00D0FEE74FF0FF300521FFF77AFF40
:1009D4000023184680BD00BF80B584B000AF00F08E
:1009E40033F82023BB812823FB7307F10C034FF456
:1009F4004060C4F20100194601F0D4FC0120052135
:100A040001F0C2FD20237B6000233B7208237B722C
:100A14000123BB723B1D184601F03EFE4FF44070AB
:100A240001F0E0FE17233B700F237B700023BB70A3
:100A34000123FB703B46184601F0E8FE00231846EC
:100A44001037BD4680BD00BF80B584B000AF02231F
:100A5400BB812823FB7307F10C034FF48050C4F2CD
:100A64000100194601F09EFC0220012101F08CFDD9
:100A740002237B6000233B7208237B720123BB7239
:100A84003B1D184601F008FE07233B700F237B70C3
:100A94000023BB700123FB703B46184601F0B6FEF1
:100AA4001037BD4680BD00BF80B584B000AF03469B
:100AB400FB710223BB6000233B7308237B73FB7928
:100AC400BB7307F10803184601F0E6FD1037BD4675
:100AD40080BD00BF80B485B000AF78600023FB7395
:100AE4000023BB604FF48063C4F201031A687B687F
:100AF4001340BB60BB68002B02D00123FB7301E0F1
:100B04000023FB73FB7B18461437BD465DF8047B5A
:100B1400704700BF80B586B000AF01F027F84FF4EE
:100B2400803001F083F801F0C5F80346FB75FB7DC6
:100B3400002B42D0102001F08DFD022001F06AFD4F
:100B4400002001F0B5F9002001F0F2F94FF48060C3
:100B540001F0CEF94FF4004001F00AFA302001F020
:100B640027F94FF4C06001F043F9012001F060F966
:100B740000BF3B2001F0D4FB0346002BF9D04FF417
:100B84008030022101F0F0F84FF480304FF4E0118E
:100B940001F0B8F8012001F0D7F800BF392001F0C6
:100BA400BFFB0346002BF9D0022001F051F900BF2E
:100BB40001F06EF90346082BFAD13B46184601F0C2
:100BC400F7F94FF48050012101F00AFB4FF4804003
:100BD400012101F02DFB7D20012101F001FB002307
:100BE40018461837BD4680BD80B586B000AF4FF4B7
:100BF4004050C4F2010000F0A1FE0023BB804FF47A
:100C04008273FB8000233B8100237B810023BB8113
:100C14004FF40073FB8110233B8200237B82072364
:100C2400BB823B1D4FF44050C4F20100194600F052
:100C3400C1FEA0233B801823FB700323BB703B46FB
:100C44004FF40060C4F20100194601F0ABFB4023ED
:100C54003B804823FB703B464FF40060C4F2010024
:100C6400194601F09FFB10233B801023FB700323E4
:100C7400BB703B464FF40060C4F20100194601F01A
:100C840091FB4FF44050C4F20100002100F0F6FE45
:100C94004FF44050C4F20100012100F0CFFE4FF4A4
:100CA4000060C4F20100102101F052FC0023184638
:100CB4001837BD4680BD00BF80B586B000AF4FF485
:100CC4006050C4F2000000F039FE0023BB804FF4F2
:100CD4008273FB8000233B8100237B810023BB8143
:100CE4004FF40073FB8128233B8200237B8207237C
:100CF400BB823B1D4FF46050C4F20000194600F063
:100D040059FE4FF420433B801823FB700323BB7030
:100D14003B464FF44060C4F20100194601F042FB27
:100D24004FF480433B804823FB703B464FF44060C4
:100D3400C4F20100194601F035FB4FF480533B80A7
:100D44001023FB700323BB703B464FF44060C4F296
:100D54000100194601F026FB4FF46050C4F2000074
:100D6400012100F06BFE4FF44060C4F201004FF427
:100D7400805101F0EDFB002318461837BD4680BDB5
:100D840080B582B000AF7D20012101F029FA4FF631
:100D9400FF73BB800023FB713B1D4FF40060C4F262
:100DA4000100194601F0FEFA3B1D4FF44060C4F205
:100DB4000100194601F0F6FA3B1D4FF48050C4F2CD
:100DC4000100194601F0EEFA3B1D4FF4A050C4F2A5
:100DD4000100194601F0E6FA3B1D4FF4C050C4F27D
:100DE4000100194601F0DEFA41F2C803BB8010236A
:100DF400FB710323BB713B1D4FF48050C4F201000F
:100E0400194601F0CFFA4FF40073BB801023FB7135
:100E14000323BB713B1D4FF44060C4F2010019462B
:100E240001F0C0FA002318460837BD4680BD00BF54
:100E340080B582B000AF0346FB71FB79042B38D830
:100E440001A252F823F000BF610E0008710E0008E1
:100E5400810E0008930E0008A50E00084FF4805080
:100E6400C4F20100402101F081FB23E04FF48050E3
:100E7400C4F20100802101F079FB1BE04FF48050A3
:100E8400C4F201004FF4807101F070FB12E04FF4E2
:100E94008050C4F201004FF4007101F067FB09E0D7
:100EA4004FF48050C4F201004FF4707101F05EFB06
:100EB40000E000BF0837BD4680BD00BF80B582B0EA
:100EC40000AF0346FB71FB79042B38D801A252F81A
:100ED40023F000BFED0E0008FD0E00080D0F000802
:100EE4001F0F0008310F00084FF48050C4F20100B6
:100EF400402101F02DFB23E04FF48050C4F20100A7
:100F0400802101F025FB1BE04FF48050C4F2010066
:100F14004FF4807101F01CFB12E04FF48050C4F2D6
:100F240001004FF4007101F013FB09E04FF480500D
:100F3400C4F201004FF4707101F00AFB00E000BF3D
:100F44000837BD4680BD00BF80B500AFFFF7E2FDA6
:100F5400FFF716FFFFF722FD00F010F8FFF73CFD46
:100F6400FFF706FD0023184680BD00BF80B500AF23
:100F7400FFF73AFEFFF7A0FE80BD00BF80B584B046
:100F840000AF0120012101F053F942F6E063BB8078
:100F94000023FB804FF6FF733B8100237B810023FA
:100FA4003B733B1D4FF08040194600F01BFC4FF093
:100FB4008040002100F0A2FC0220012101F038F958
:100FC4000C23BB801023FB804FF6FF733B8100236F
:100FD4007B8100233B733B1D4FF48060C4F200000F
:100FE400194600F0FFFB4FF48060C4F200000121B9
:100FF40000F084FC1037BD4680BD00BF2DE9704F62
:101004009046994682468B4600F0C2F84FF400633E
:10101400C4F2010310224FF440565A61C4F201068F
:101024004FF0000EBAF1000F0ED01BF80E30B38152
:1010340035894FF44054EA07C4F20104F8D50EF19F
:10104400010ED645A389F0DB00214FF440550E462E
:10105400C4F20105B8F1000F0ED019F80130AB81CC
:101064002C894FF44051E307C4F20101F8D501364D
:1010740046458B893146F0D14FF40063C4F2010335
:1010840010221A6100F098F80020BDE8708F00BFAC
:101094002DE9704F9046994682468B4600F078F8C9
:1010A4004FF40063C4F2010310224FF440565A6116
:1010B400C4F201064FF0000EBAF1000F0ED01BF877
:1010C4000E30B38135894FF44054EA07C4F2010469
:1010D400F8D50EF1010ED645A389F0DBB8F1000F67
:1010E40016D04FF0000E4FF4405576467246C4F2C7
:1010F4000105AA812C894FF44051E307C4F2010190
:10110400F8D501368B89464509F80E30B646F0D13C
:101114004FF40063C4F2010310221A6100F04CF88A
:101124000020BDE8708F00BF80B483B000AF0346D9
:10113400FB714FF46143CEF2000397F90720520983
:10114400F97901F01F01012000FA01F143F822109E
:101154000C37BD465DF8047B704700BF80B483B094
:1011640000AF0346FB714FF46143CEF2000397F9DD
:1011740007205209F97901F01F01012000FA01F159
:10118400203243F822100C37BD465DF8047B7047CB
:1011940080B582B000AF1720FFF79CFC03467B604C
:1011A4007B68002B02D01720FFF7D8FF7B68184616
:1011B4000837BD4680BD00BF80B582B000AF7860FF
:1011C4007B68002B02D01720FFF7AEFF0837BD461F
:1011D40080BD00BF00B583B0B9B17F2960F03F0086
:1011E4008DF8000085BF61F07F00C9098DF80110FA
:1011F4008DF801008ABF8DF8021002200320694691
:10120400FFF7FCFE03B05DF804FB60F07F008DF88F
:10121400000069460120FFF7F1FE03B05DF804FB0E
:1012240000B583B0B9B17F2940F040008DF80000CB
:1012340085BF61F07F00C9098DF801108DF80100A8
:101244008ABF8DF80210022003206946FFF720FFB1
:1012540003B05DF804FB8DF8000069460120FFF738
:1012640017FF03B05DF804FB00B5042283B080B21D
:1012740089B20DEB0203FFF7D3FF20B14FF0FF302B
:1012840003B05DF804FB9DF807009DF806309DF857
:101294000520A0F5807003EB00209DF8043002EBDC
:1012A400002003EB002003B05DF804FB00B583B01D
:1012B40080B289B202226B46FFF7B2FF20B14FF62B
:1012C400FF7003B05DF804FB9DF801009DF8003049
:1012D40003EB002080B203B05DF804FB30B583B0AB
:1012E4001446150A89B202226B4680B28DF800407A
:1012F4008DF80150FFF76EFF03B030BD70B582B0BA
:101304004FEA122E1446160C150E89B204226B46AF
:1013140080B28DF800408DF801E08DF802608DF800
:101324000350FFF757FF02B070BD00BF2DE97041B5
:1013340040F23414C2F20004627F002385B01946DF
:101344000F2084F85A2084F85430FFF78DFF4205AB
:10135400054603D5667F002E00F0878015F480468D
:1013640046D0680541D515F4801640F09980314681
:101374001020FFF79BFF984B804631461120022234
:10138400FFF74EFF637B002B00F0CB80C8F3090806
:1013940040F2341315F00802A4F85680C2F2000398
:1013A40008D093F8581001F0200101F0FF00002943
:1013B40000F0E68084F855204FF00008617F40F289
:1013C40034160223C2F2000684F85430002940F097
:1013D400AB8005F4DE4248EA02020F20FFF78EFFDD
:1013E400B36F13B106F15400984705B0BDE870819E
:1013F40015F0800168D115F4003640F081804FF477
:101404001042C2F227422A40002AEED00F20314671
:10141400FFF774FF236A84F869609B0040F1C5807C
:1014240000F036F9EE0444BF082384F8543014D491
:10143400280400F1BD80E90344BF092384F8543033
:101444000BD46A0144BF0A2384F8543005D4AB0298
:1014540040F1AE800B2384F85430A36F002BC4D02A
:101464005E48984705B0BDE8708100F46063B3F549
:10147400606F3FF473AF00F0BBF800F009F9236A22
:1014840005F0F8059B0000F18980A36F032284F81E
:101494005420002B3FF462AF04F1540098475DE7F9
:1014A40000F0A6F800F0F4F8236A40F23410990032
:1014B400C2F200005DD4836F032280F85420002B15
:1014C40093D05430984790E7F8220F203146FFF725
:1014D40015FF94F8552040F23413C2F2000342B1D0
:1014E4005A7F83F8556022B993F869300BB100F044
:1014F4007FF8636F012284F85420002BB0D174E785
:1015040032460F20FFF7FAFEA36F042284F854201A
:101514000BB132489847002384F8693005B0BDE820
:10152400708108F07F0833E7012632466B460F20AE
:1015340003218DF80860FFF773FE9DF8003023F057
:101544007F0203F04003B2EB430F3BD0216A11F05A
:10155400005131D0A36F0BB12048984700F040F8F8
:10156400A8B100F045F800F093F8236A9A007FF5DB
:101574003CAF00214FF480720D20FFF7AFFE34E73B
:1015840083F8550083F869004FF0080816E7032133
:10159400012202AB0D20FFF71DFE26E731464FF472
:1015A40080720D20FFF79AFED8E600F021F837E7A5
:1015B400032384F8543050E74FF480720D20FFF772
:1015C4008DFEC7E705F4C04248EA020200210F205D
:1015D400FFF794FEBAE700BF8C01002088010020C9
:1015E40008B502210F20FFF761FE00F0100008BDCE
:1015F40070B582B04023002102AC0E2004F8083DEF
:10160400FFF732FE0646FFF7C3FD002105460A46F2
:101614000E20FFF773FE6B46002101220D20FFF719
:10162400D9FD4FF6F872C2F2274200210F20FFF7CE
:1016340065FE00F011F8324600210E20FFF75EFE31
:101644002846FFF7B9FD40F23413C2F2000300222A
:1016540083F8692002B070BD00B585B001226B46E5
:101664000F200321FFF7DCFD9DF8003023F07F02FB
:1016740003F04003B2EB430F07D0012204AB03F89D
:10168400082D0D200321FFF7A5FD05B05DF804FB2F
:1016940010B582B002ACE02304F8083D03216B4688
:1016A40001223620FFF796FDF0246B460321012228
:1016B40036208DF80040FFF78DFD02B010BD00BF4D
:1016C40080B483B000AF0346FB714FF46143CEF2A4
:1016D400000397F907205209F97901F01F0101204D
:1016E40000FA01F1203243F822100C37BD465DF8B0
:1016F400047B704780B500AF012000F063F880BD23
:1017040080B500AFFFF712FE4FF44060C4F2010051
:10171400202100F003FF0346012BF3D080BD00BF5E
:1017240080B59CB000AF0023FB660123BB66002399
:101734007B664FF000024FF00003C7E916234FF019
:1017440000024FF00003C7E914230420FFF770FBE5
:10175400FFF7FAFBFFF70AFC44F24020C0F20F0047
:10176400FEF7E6FD0020FFF79FF91720FFF7A8FF1B
:101774000523FB6617E0FB6E03F00103002B06D084
:101784000020FFF755FB0120FFF798FB05E0002040
:10179400FFF794FB0120FFF74BFB48F2A060C0F277
:1017A4000100FEF7C5FDFB6E5A1EFA66002BE2D15E
:1017B4000420FFF73DFBFEF7F7FD0420FFF77EFB57
:1017C400FEE700BF80B483B000AF786040F2F0134E
:1017D400C2F200037A68C3F8FC290C37BD465DF8F1
:1017E400047B704780B485B000AF78603960002313
:1017F400FB817B681B88FB817A684FF43053C4F209
:1018040001039A421FD07A684FF45053C4F2010383
:101814009A4218D07B68B3F1804F14D07A684FF4A1
:101824008063C4F200039A420DD07A684FF40063D7
:10183400C4F200039A4206D07A684FF44063C4F2BB
:1018440000039A4208D1FB8923F07003FB813B68B3
:101854005A88FB891343FB817A684FF48053C4F29E
:1018640000039A420FD07A684FF4A053C4F20003E5
:101874009A4208D0FB8923F44073FB813B68DA88E1
:10188400FB891343FB817B68FA891A803B689A8839
:101894007B689A853B681A887B681A857A684FF456
:1018A4003053C4F201039A421BD07A684FF4505368
:1018B400C4F201039A4214D07A684FF48043C4F20C
:1018C40001039A420DD07A684FF48843C4F20103AD
:1018D4009A4206D07A684FF49043C4F201039A42C4
:1018E40004D13B681B7A1A467B681A867B680122FE
:1018F4009A821437BD465DF8047B704780B483B088
:1019040000AF78600B46FB70FB78002B08D07B6837
:101914001B889BB243F001039AB27B681A8007E0EC
:101924007B681B889BB223F001039AB27B681A8000
:101934000C37BD465DF8047B704700BF80B582B0AC
:1019440000AF78607A684FF44053C4F201039A42BE
:101954000AD14FF48050012100F092FC4FF48050E2
:10196400002100F08DFC22E07A684FF46053C4F249
:1019740000039A420AD14FF48040012100F0A8FCF0
:101984004FF48040002100F0A3FC10E07A684FF48B
:101994007053C4F200039A4209D14FF4004001216C
:1019A40000F096FC4FF40040002100F091FC083751
:1019B400BD4680BD80B485B000AF78603960002337
:1019C400FB817B681B88FB81FB8903F44153FB810A
:1019D4003B681A883B685B8813439AB23B689B88D0
:1019E40013439AB23B68DB8813439AB23B681B8962
:1019F40013439AB23B685B8913439AB23B689B8951
:101A040013439AB23B68DB8913439AB2FB891343AD
:101A1400FB817B68FA891A807B689B8B9BB223F4D9
:101A240000639AB27B689A833B681A8A7B681A823D
:101A34001437BD465DF8047B704700BF80B483B0A3
:101A440000AF78600B46FB70FB78002B08D07B68F6
:101A54001B889BB243F040039AB27B681A8007E06C
:101A64007B681B889BB223F040039AB27B681A8080
:101A74000C37BD465DF8047B704700BF80B483B06B
:101A840000AF78600B46FB70FB78002B08D07B68B6
:101A94009B889BB243F004039AB27B689A8007E068
:101AA4007B689B889BB223F004039AB27B689A807C
:101AB4000C37BD465DF8047B704700BF80B400AFAF
:101AC40000BF4FF42053C4F200039B889BB203F081
:101AD4002003002BF5D0BD465DF8047B704700BFA2
:101AE40080B485B000AF0346FB800023FB734FF442
:101AF4002053C4F200039B889BB2DAB2FB88DBB2AA
:101B04001340FB734FF42053C4F200031B889AB2B2
:101B1400FB8813409BB2002B05D0FB7B002B02D02B
:101B24000123FB7301E00023FB73FB7B184614378E
:101B3400BD465DF8047B704780B483B000AF0346B4
:101B4400FB804FF42053C4F200034FF42052C4F23C
:101B54000002928891B2FA88D24392B20A4092B2B9
:101B64009A800C37BD465DF8047B704780B400AFA3
:101B74004FF48053C4F202034FF48052C4F20202C1
:101B8400126842F001021A604FF48052C4F2020259
:101B94004FF48053C4F2020359680023CFF2FF03C9
:101BA4000B4053604FF48053C4F202034FF480524D
:101BB400C4F20202126822F0847222F480321A60A3
:101BC4004FF48053C4F202034FF48052C4F2020271
:101BD400126822F480221A604FF48053C4F2020384
:101BE4004FF48052C4F20202526822F4FE025A6098
:101BF4004FF48053C4F202034FF48052C4F2020241
:101C0400126822F0A0521A604FF48053C4F2020307
:101C14004FF47F029A604FF48053C4F2020300220F
:101C2400DA62BD465DF8047B704700BF80B483B0C0
:101C340000AF78604FF48053C4F202034FF4805233
:101C4400C4F20202126822F480321A604FF4805304
:101C5400C4F202034FF48052C4F20202126822F466
:101C640080221A607B68B3F5803F03D0B3F5802FE0
:101C74000DD019E04FF48053C4F202034FF48052A4
:101C8400C4F20202126842F480321A600CE04FF48B
:101C94008053C4F202034FF48052C4F20202126869
:101CA40042F4A0221A6000BF0C37BD465DF8047BE5
:101CB400704700BF80B582B000AF00233B600023B3
:101CC400FB710023BB71312000F02AFB0346BB717A
:101CD4003B6801333B603B68B3F5A06F02D0BB792E
:101CE400002BF0D0312000F01BFB0346002B02D068
:101CF4000123FB7101E00023FB71FB7918460837CF
:101D0400BD4680BD80B485B000AF786039600023E3
:101D1400FB604FF48053C4F202035B68FB60FB6812
:101D240023F47413FB607A683B681343FA68134323
:101D3400FB604FF48053C4F20203FA685A6014370C
:101D4400BD465DF8047B704780B483B000AF0346A2
:101D5400FB716023C4F24223FA791A600C37BD4642
:101D64005DF8047B704700BF80B485B000AF786035
:101D740039600023FB604FF48053C4F20203DB6A32
:101D8400FB60FB6823F4803323F00F03FB607A6865
:101D94003B681343FA681343FB604FF48053C4F267
:101DA4000203FA68DA621437BD465DF8047B7047B3
:101DB40080B485B000AF78600023FB604FF480539B
:101DC400C4F20203DB6AFB60FB6823F0F003FB60F0
:101DD400FA687B681343FB604FF48053C4F2020338
:101DE400FA68DA621437BD465DF8047B704700BFB9
:101DF40080B485B000AF78600023FB604FF480535B
:101E0400C4F20203DB6AFB60FB6823F47063FB60CB
:101E1400FA687B681343FB604FF48053C4F20203F7
:101E2400FA68DA621437BD465DF8047B704700BF78
:101E340080B483B000AF0346FB716823C4F242232D
:101E4400FA791A600C37BD465DF8047B704700BF11
:101E540080B485B000AF78600023FB604FF48053FA
:101E6400C4F202035B68FB60FB6823F00303FB60BE
:101E7400FA687B681343FB604FF48053C4F2020397
:101E8400FA685A601437BD465DF8047B704700BF9A
:101E940080B400AF4FF48053C4F202035B68DBB23A
:101EA40003F00C03DBB21846BD465DF8047B7047B3
:101EB40080B485B000AF78600023FB604FF480539A
:101EC400C4F202035B68FB60FB6823F0F003FB6071
:101ED400FA687B681343FB604FF48053C4F2020337
:101EE400FA685A601437BD465DF8047B704700BF3A
:101EF40080B485B000AF78600023FB604FF480535A
:101F0400C4F202035B68FB60FB6823F4E063FB60DC
:101F1400FA687B681343FB604FF48053C4F20203F6
:101F2400FA685A601437BD465DF8047B704700BFF9
:101F340080B485B000AF78600023FB604FF4805319
:101F4400C4F202035B68FB60FB6823F46053FB602C
:101F54007B68DB00FA681343FB604FF48053C4F2E0
:101F64000203FA685A601437BD465DF8047B704773
:101F740080B485B000AF78600023FB604FF48053D9
:101F8400C4F202035B68FB60FB6823F44043FB601C
:101F9400FA687B681343FB604FF48053C4F2020376
:101FA400FA685A601437BD465DF8047B704700BF79
:101FB40080B48BB000AF786000233B6200237B6267
:101FC4000023FB610023BB6100237B6100233B6191
:101FD4000023FB600023BB604FF48053C4F2020370
:101FE4005B6803F00C033B623B6A042B0AD0082BAA
:101FF4000FD0002B7FD17A684FF49053C0F27A034C
:1020040013607FE07A6847F64003C0F27D131360E3
:1020140078E04FF48053C4F202035B6803F4701356
:102024007B624FF48053C4F202035B6803F4803391
:10203400FB617B6A9B0C7B627B6A0D2B03D07B6A02
:1020440002337B6201E006237B62FB69002B09D12A
:102054007A6A4FF41063C0F23D0303FB02F27B681B
:102064001A6047E04FF48053C4F20203DB6A03F4BE
:1020740080337B614FF48053C4F20203DB6A03F0C4
:102084000F0301333B617B69002B0CD147F64003FE
:10209400C0F27D133A69B3FBF2F37A6A02FB03F2EE
:1020A4007B681A6026E04FF48053C4F20203DB6AB3
:1020B40003F0F0031B090133FB604FF48053C4F2B7
:1020C4000203DB6A03F470631B0A0233BB6047F646
:1020D4004003C0F27D13FA68B3FBF2F3BA6802FB63
:1020E40003F23B69B2FBF3F37A6A02FB03F27B6807
:1020F4001A6007E006E07A684FF49053C0F27A035E
:10210400136000BF4FF48053C4F202035B6803F012
:10211400F0033B623B6A1B093B6240F2FC03C2F2E0
:1021240000033A6A13441B78DBB2BB617B681A680C
:10213400BB69DA407B685A604FF48053C4F20203EF
:102144005B6803F4E0633B623B6A1B0A3B6240F258
:10215400FC03C2F200033A6A13441B78DBB2BB618E
:102164007B685A68BB69DA407B689A604FF4805395
:10217400C4F202035B6803F460533B623B6ADB0A0C
:102184003B6240F2FC03C2F200033A6A13441B7838
:10219400DBB2BB617B685A68BB69DA407B68DA6092
:1021A4004FF48053C4F202035B6803F440433B6280
:1021B4003B6A9B0B3B6240F20C13C2F200033A6A87
:1021C40013441B78DBB2BB617B68DA68BB69B2FB82
:1021D400F3F27B681A612C37BD465DF8047B7047C7
:1021E40080B483B000AF78600B46FB70FB78002BA3
:1021F4000CD04FF48053C4F202034FF48052C4F263
:10220400020291697A680A439A610CE04FF48053A0
:10221400C4F202034FF48052C4F2020291697A6854
:10222400D2430A409A610C37BD465DF8047B70477F
:1022340080B483B000AF78600B46FB70FB78002B52
:102244000CD04FF48053C4F202034FF48052C4F212
:102254000202D1697A680A43DA610CE04FF48053D0
:10226400C4F202034FF48052C4F20202D1697A68C4
:10227400D2430A40DA610C37BD465DF8047B7047EF
:1022840080B483B000AF78600B46FB70FB78002B02
:102294000CD04FF48053C4F202034FF48052C4F2C2
:1022A4000202D1687A680A43DA600CE04FF4805382
:1022B400C4F202034FF48052C4F20202D1687A6875
:1022C400D2430A40DA600C37BD465DF8047B7047A0
:1022D40080B483B000AF78600B46FB70FB78002BB2
:1022E4000CD04FF48053C4F202034FF48052C4F272
:1022F400020211697A680A431A610CE04FF48053B0
:10230400C4F202034FF48052C4F2020211697A68E3
:10231400D2430A401A610C37BD465DF8047B70470E
:1023240080B487B000AF0346FB710023FB60002339
:102334007B610023FB74FB795B09DBB2FB60FB6808
:10234400012B06D14FF48053C4F202031B687B6156
:102354000FE0FB68022B06D14FF48053C4F2020352
:102364001B6A7B6105E04FF48053C4F202035B6A8D
:102374007B61FB7903F01F03FB60FB687A6922FA37
:1023840003F303F00103002B02D00123FB7401E0EB
:102394000023FB74FB7C18461C37BD465DF8047BA8
:1023A400704700BF80B489B000AF78603960002303
:1023B400FB6100233B610023BB610023FB6000231E
:1023C4007B610023BB603B68DB7803F00F03FB6198
:1023D4003B68DB7803F01003002B04D03B689B7848
:1023E400FA691343FB613B681B88DBB2002B44D0C2
:1023F4007B681B687B610023BB6138E0BB690122F9
:1024040002FA03F3FB603B681B881A46FB6813401F
:102414003B613A69FB689A4226D1BB699B00FB6029
:10242400FB680F2202FA03F3BB60BB68DB437A69E3
:1024340013407B61FB68FA6902FA03F37A69134378
:102444007B613B68DB78282B05D1BB6901229A406C
:102454007B685A6108E03B68DB78482B04D1BB6990
:1024640001229A407B681A61BB690133BB61BB6975
:10247400072BC3D97B687A691A603B681B88FF2BDA
:1024840046D97B685B687B610023BB613AE0BB692A
:102494000833012202FA03F3FB603B681B881A46E7
:1024A400FB6813403B613A69FB689A4227D1BB69D8
:1024B4009B00FB60FB680F2202FA03F3BB60BB685E
:1024C400DB437A6913407B61FB68FA6902FA03F320
:1024D4007A6913437B613B68DB78282B05D1BB69A0
:1024E400083301229A407B685A613B68DB78482BA9
:1024F40005D1BB69083301229A407B681A61BB6924
:102504000133BB61BB69072BC1D97B687A695A6007
:102514002437BD465DF8047B704700BF80B485B0A6
:1025240000AF78600B467B800023FB737B689A685E
:102534007B881340002B02D00123FB7301E00023AE
:10254400FB73FB7B18461437BD465DF8047B70476C
:1025540080B483B000AF78600B467B807A887B6858
:102564001A610C37BD465DF8047B704780B483B0B4
:1025740000AF78600B467B807A887B685A610C37A1
:10258400BD465DF8047B704790B484B000AF02464A
:102594000B46FA71BB710023FB60BB7903F00303A4
:1025A4009B000F2202FA03F3FB600023C4F2010331
:1025B400BA799208D2B210460022C4F20102B97963
:1025C4008908C9B2023152F82110FA68D243114085
:1025D400821C43F822100023C4F20103BA79920842
:1025E400D2B210460022C4F20102B9798908C9B2F4
:1025F400023152F82110FC79BA7902F003029200F8
:1026040004FA02F21143821C43F822101037BD462B
:1026140090BC704780B485B000AF78600023FB6045
:102624004FF40053C4F202031B68FB60FB6803F021
:102634003803FB60FA687B681343FB604FF4005374
:10264400C4F20203FA681A601437BD465DF8047BCD
:10265400704700BF80B483B000AF78604FF400537C
:10266400C4F202034FF40052C4F20202126822F0D0
:1026740010021A604FF40053C4F202034FF40052E4
:10268400C4F2020211687A680A431A600C37BD4624
:102694005DF8047B704700BF80B485B000AF7860FC
:1026A4000023FB604FF48063C4F20103FB607B688A
:1026B4009B79002B74D04FF48063C4F201034FF470
:1026C4008062C4F2010211687A681268D2430A4037
:1026D4001A604FF48063C4F201034FF48062C4F2C1
:1026E400010251687A681268D2430A405A607B68D2
:1026F4001B79FA681344FB60FB68FA6811687A680E
:1027040012680A431A604FF48063C4F201034FF461
:102714008062C4F2010291687A681268D2430A4066
:102724009A604FF48063C4F201034FF48062C4F2F0
:102734000102D1687A681268D2430A40DA607B6881
:102744005B79102B1AD14FF48063C4F201034FF468
:102754008062C4F2010291687A6812680A439A603E
:102764004FF48063C4F201034FF48062C4F20102A7
:10277400D1687A6812680A43DA601EE04FF4806315
:10278400C4F20103FB607B685B79FA681344FB6065
:10279400FB68FA6811687A6812680A431A600CE0E8
:1027A4007B681B79FA681344FB60FB68FA6811685C
:1027B4007A681268D2430A401A601437BD465DF83D
:1027C400047B704780B483B000AF78604FF48063BB
:1027D400C4F201037A685A610C37BD465DF8047B84
:1027E400704700BF80B483B000AF78604FF46D438E
:1027F400CEF200037A6842F0BF6242F40032DA603B
:102804000C37BD465DF8047B704700BF80B487B0C9
:1028140000AF786000237B6100233B610F23FB60E2
:102824007B68DB78002B42D04FF46D43CEF200037B
:10283400DB68DB4303F4E0631B0A7B617B69C3F160
:1028440004033B617B69FA6822FA03F3FB607B684B
:102854005B781A463B6902FA03F37B617B689B78D9
:102864001A46FB6813407A6913437B617B691B0139
:102874007B614FF46143CEF200037A68127811460B
:102884007A69D2B20B4483F800234FF46143CEF249
:1028940000037A6812785209D2B27968097801F093
:1028A4001F01012000FA01F143F8221011E04FF456
:1028B4006143CEF200037A6812785209D2B2796881
:1028C400097801F01F01012000FA01F1203243F8D8
:1028D40022101C37BD465DF8047B704780B500AFFD
:1028E4004FF48053C4F202034FF48052C4F2020244
:1028F400126842F001021A604FF48052C4F20202DC
:102904004FF48053C4F2020359680023CFF2FF034B
:102914000B4053604FF48053C4F202034FF48052CF
:10292400C4F20202126822F0847222F480321A6025
:102934004FF48053C4F202034FF48052C4F20202F3
:10294400126822F480221A604FF48053C4F2020306
:102954004FF48052C4F20202526822F4FE025A601A
:102964004FF48053C4F202034FF48052C4F20202C3
:10297400126822F0A0521A604FF48053C4F202038A
:102984004FF47F029A604FF48053C4F20203002292
:10299400DA6200F009F84FF46D43CEF200034FF011
:1029A40000629A6080BD00BF80B500AF00F002F8FD
:1029B40080BD00BF80B483B000AF00237B600023E0
:1029C4003B604FF48053C4F202034FF48052C4F2CC
:1029D4000202126842F480321A604FF48053C4F247
:1029E40002031B6803F400333B607B6801337B60A4
:1029F4003B68002B03D17B68B3F5A06FEDD14FF496
:102A04008053C4F202031B6803F40033002B02D08A
:102A140001233B6001E000233B603B68012B40F055
:102A2400C7804FF40053C4F202034FF40052C4F2BF
:102A34000202126842F010021A604FF40053C4F20A
:102A440002034FF40052C4F20202126822F003029D
:102A54001A604FF40053C4F202034FF40052C4F25C
:102A64000202126842F002021A604FF48053C4F268
:102A740002034FF48052C4F2020252685A604FF4C7
:102A84008053C4F202034FF48052C4F2020252682B
:102A94005A604FF48053C4F202034FF48052C4F2DC
:102AA4000202526842F480625A604FF48052C4F2C7
:102AB40002024FF48053C4F20203D96A4FF4704304
:102AC400CFF6FE730B40D3624FF48053C4F202037B
:102AD4004FF48052C4F20202D26A42F4833242F0CA
:102AE4004402DA624FF48053C4F202034FF480527A
:102AF400C4F20202126842F080621A6000BF4FF40E
:102B04008053C4F202031B6803F00063002BF6D069
:102B14004FF48053C4F202034FF48052C4F2020211
:102B2400526822F47C125A604FF48053C4F20203B8
:102B34004FF48052C4F20202526842F4E8125A601E
:102B44004FF48053C4F202034FF48052C4F20202E1
:102B5400126842F080721A6000BF4FF48053C4F2CE
:102B640002031B6803F00073002BF6D04FF480536C
:102B7400C4F202034FF48052C4F20202526822F0FB
:102B840003025A604FF48053C4F202034FF480529C
:102B9400C4F20202526842F002025A6000BF4FF4CB
:102BA4008053C4F202035B6803F00C03082BF6D1D4
:102BB4000C37BD465DF8047B704700BF002103E07D
:102BC4000B4B5B58435004310A480B4B42189A4252
:102BD400F6D30A4A02E0002342F8043B084B9A4227
:102BE400F9D3FFF77BFEFDF775FBFEF799FD704700
:102BF400902C00080000002014010020180100207F
:102C0400F80B0020FEE700000000000000000000B8
:102C140000000000000000000000000000000000B0
:102C240000000000000000000000000000000000A0
:102C34000000000000000000000000000000000090
:102C44000000000000000000000000000000000080
:102C54000000000000000000000000000000000070
:102C6400000000000000000043000000F8B500BFB1
:102C7400F8BC08BC9E467047F8B500BFF8BC08BC59
:042C84009E467047B1
:042C88006D020008D1
:042C8C003D020008FD
:102C900004000020000000004C2C00082C2C000830
:102CA0000C2C0008000000000000000000000000E4
:102CB000000000006C2C0008000000000000000074
:102CC0000000000000000000000000000000000004
:102CD00000000000000000000000000000000000F4
:102CE00000000000000000000000000000000000E4
:102CF00000000000000000000000000000000000D4
:102D000000000000000000000000000000000000C3
:102D100000000000000000000000000000000000B3
:102D200000000000000000000000000000000000A3
:102D30000000000000000000000000000000000093
:102D40000000000000000000000000000000000083
:102D50000000000000000000000000000000000073
:102D60000000000000000000000000000000000063
:102D70000000000000000000000000000000000053
:102D80000000000002010001C9C380000000000033
:102D900001020304010203040607080902040608ED
:042DA00000A24A043F
:0400000508002BC103
:00000001FF
