:020000040800F2
:1000000000000120DD370008AD030008F5030008FB
:10001000150400081D040008250400080000000065
:100020000000000000000000000000002D04000897
:100030003904000800000000450400086D040008B1
:100040002538000825380008253800085104000824
:100050002538000825380008BD040008CD04000834
:1000600025380008D904000825380008253800087C
:1000700025380008253800082538000825380008EC
:1000800025380008253800082538000825380008DC
:10009000253800082538000825380008E90400083C
:1000A00025380008253800082538000825380008BC
:1000B00025380008253800082538000825380008AC
:1000C000253800082538000825380008253800089C
:1000D000253800082538000825380008253800088C
:1000E00091040008253800082538000800000000A9
:1000F0000000000000000000000000000000000000
:100100000000000000000000253800082538000825
:10011000253800082538000825380008253800084B
:10012000253800082538000825380008253800083B
:1001300025380008A5040008B10400082538000887
:10014000253800082538000825380008253800081B
:10015000000000000000000000000000000000009F
:10016000000000000000000000000000000000008F
:10017000000000000000000000000000000000007F
:10018000000000000000000000000000000000006F
:10019000000000000000000000000000000000005F
:1001A000000000000000000000000000000000004F
:1001B000000000000000000000000000000000003F
:1001C000000000000000000000000000000000002F
:1001D000000000000000000000000000000000001F
:0401E0005FF8E0F1F3
:1001E40008B540F22010074BC2F200001B1A062B80
:1001F40000D808BD40F20003C0F20003002BF8D081
:100204009847F6E72301002008B540F2201040F299
:100214002013C2F20000C2F200031B1A9B1003EB6E
:10022400D373591000D108BD40F20002C0F200029D
:10023400002AF8D09047F6E710B540F22014C2F235
:100244000004237873B9FFF7CBFF40F20003C0F238
:1002540000032BB143F6A000C0F60000AFF300800A
:100264000123237010BD00BF08B540F20003C0F2A3
:1002740000034BB143F6A00040F22411C0F6000085
:10028400C2F20001AFF3008040F22010C2F200007D
:1002940003682BB140F20003C0F2000303B1984796
:1002A400BDE80840B0E700BF40F20003C2F200031B
:1002B40000B585B01868694600F058F8431C06D0AC
:1002C400009B0198029A1844039B1044184405B0FB
:1002D4005DF804FB70B543F6B80643F6B805C0F6FE
:1002E4000006C0F60005761BB6101CBF043D0024B2
:1002F40005D0013455F8043F9847A642F9D143F696
:10030400BC0643F6B805C0F60005C0F60006761B29
:1003140003F0C4FAB6101CBF043D002406D0013417
:1003240055F8043F9847A642F9D170BD70BD00BF8F
:1003340080B584B000AF7860FFF7B6FFF8607A68E4
:1003440044F6D353C1F26203A3FB02139B09BB60BF
:1003540000BFFFF7A9FF0246FB68D21ABB689A42A6
:10036400F7D3002318461037BD4680BD80B584B04E
:1003740000AF7860396000F01DF90346FB603B680C
:10038400002B0BD03B68FA681A603B6800225A6065
:100394003B6800229A603B680022DA60FB681846DA
:1003A4001037BD4680BD00BF80B400AFBD465DF8C8
:1003B400047B704780B48BB000AF78607B681B68A7
:1003C4007B627B685B683B627B689B68FB617B68E4
:1003D400DB68BB617B681B697B617B685B693B6134
:1003E4007B689B69FB607B68DB69BB60FEE700BFE1
:1003F40080B400AF1EF0040F0CBFEFF30880EFF3DE
:1004040009808169004A1047B9030008FEE700BF6C
:1004140080B400AFFEE700BF80B400AFFEE700BFCA
:1004240080B400AFFEE700BF80B400AFBD465DF806
:10043400047B704780B400AFBD465DF8047B704711
:1004440080B400AFBD465DF8047B704780B500AF53
:10045400012001F001FF0346002B04D0012001F02C
:1004640027FF01F0E7FE80BD80B400AF40F2BC136B
:10047400C2F200031B685A1C40F2BC13C2F2000310
:100484001A60BD465DF8047B704700BF80B500AFBD
:10049400AFF300804FF4005002F006FE80BD00BFB1
:1004A40080B400AFBD465DF8047B704780B400AFF4
:1004B400BD465DF8047B704780B500AF00F07AFF5D
:1004C400012002F0F1FD80BD80B500AF022002F0F2
:1004D400EBFD80BD80B500AF00F072FF082002F094
:1004E400E3FD80BD80B500AF00F06AFF202002F07C
:1004F400DBFD80BD80B483B000AF03463960FB717F
:1005040097F90730002B0EDA4FF46D43CEF2000357
:10051400FA7902F00F02111F3A68D2B21201D2B274
:100524000B441A760CE04FF46143CEF2000397F9C2
:1005340007103A68D2B21201D2B20B4483F80023F6
:100544000C37BD465DF8047B704700BF80B582B0B0
:1005540000AF78607B68B3F1807F01D301231AE098
:100564004EF21003CEF200037A6822F07F42013A81
:100574005A604FF0FF300F21FFF7BCFF4EF210031B
:10058400CEF2000300229A604EF21003CEF2000372
:1005940007221A60002318460837BD4680BD00BFF5
:1005A40080B400AF4FF0FF331846BD465DF8047BBE
:1005B400704700BF80B400AF40F2BC13C2F2000326
:1005C4001B681846BD465DF8047B704780B500AFD4
:1005D40040F21C13C2F200031A6844F6D353C1F26A
:1005E4006203A3FB02139B091846FFF7AFFF034600
:1005F400002B00D0FEE74FF0FF300521FFF77AFF14
:100604000023184680BD00BF80B584B000AF00F061
:1006140033F82023BB812823FB7307F10C034FF429
:100624004060C4F20100194602F032FA01200521AB
:1006340002F020FB20237B6000233B7208237B72A3
:100644000123BB723B1D184602F098FC4FF4407026
:1006540002F03CFF17233B700F237B700023BB7019
:100664000123FB703B46184602F044FF0023184662
:100674001037BD4680BD00BF80B584B000AF0223F3
:10068400BB812823FB7307F10C034FF48050C4F2A1
:100694000100194602F0FCF90220012102F0EAFAF5
:1006A40002237B6000233B7208237B720123BB720D
:1006B4003B1D184602F062FC07233B700F237B703E
:1006C4000023BB700123FB703B46184602F012FF67
:1006D4001037BD4680BD00BF80B485B000AF7860E0
:1006E4000023FB730023BB604FF48063C4F2010357
:1006F4001A687B681340BB60BB68002B02D00123DF
:10070400FB7301E00023FB73FB7B18461437BD46E3
:100714005DF8047B704700BF80B586B000AF01F080
:10072400E1FD4FF4803001F03DFE01F07FFE034611
:10073400FB75FB7D002B37D0102002F001FB00205D
:1007440002F0DEFA002001F029FF002001F066FF2C
:100754004FF4806001F042FF4FF4804001F07EFFCF
:10076400702001F09BFE4FF4206001F0B7FE0120E1
:1007740001F0D4FE00BF3B2002F048F90346002BF1
:10078400F9D0012001F07AFE00BF392002F03EF9D1
:100794000346002BF9D0022001F0D0FE00BF01F087
:1007A400EDFE0346082BFAD13B46184601F076FFCE
:1007B4004FF48050012102F089F84FF48040012168
:1007C40002F0ACF844F27D00012102F07FF800232E
:1007D40018461837BD4680BD80B586B000AF44F2D8
:1007E4000500012102F072F84FF46050C4F20100D8
:1007F400012101F055FB4FF49673BB600023BB81CC
:100804000023FB8100233B820023BB820C237B82D9
:1008140007F108034FF46050C4F20100194601F0D7
:100824007DFA4FF40073BB801823FB710223BB7164
:100834003B1D4FF40060C4F20100194602F028F990
:100844004FF48063BB800423FB710223BB713B1D07
:100854004FF40060C4F20100194602F019F94FF494
:100864006050C4F20100012101F01AFB0023184674
:100874001837BD4680BD00BF80B586B000AF4FF4C9
:100884004050C4F2010001F015FC0023BB804FF47A
:100894008273FB8000233B8100237B810023BB8187
:1008A4004FF40073FB8110233B8200237B820723D8
:1008B400BB823B1D4FF44050C4F20100194601F0C5
:1008C40035FCA0233B801823FB700323BB703B46FD
:1008D4004FF40060C4F20100194602F0D9F8402335
:1008E4003B804823FB703B464FF40060C4F2010098
:1008F400194602F0CDF810233B801023FB7003232C
:10090400BB703B464FF40060C4F20100194602F08C
:10091400BFF84FF44050C4F20100002101F06AFC1A
:100924004FF44050C4F20100012101F043FC4FF4A4
:100934000060C4F20100102102F080F9002318467F
:100944001837BD4680BD00BF80B582B000AF7D20A2
:10095400012101F0BBFF4FF6FF73BB800023FB7145
:100964003B1D4FF40060C4F20100194602F090F8F8
:100974003B1D4FF44060C4F20100194602F088F8B0
:100984003B1D4FF48050C4F20100194602F080F878
:100994003B1D4FF4A050C4F20100194602F078F850
:1009A4003B1D4FF4C050C4F20100194602F070F828
:1009B40041F2C803BB801023FB710323BB713B1DB1
:1009C4004FF48050C4F20100194602F061F84FF46C
:1009D4000073BB801023FB710323BB713B1D4FF4D9
:1009E4004060C4F20100194602F052F80023184690
:1009F4000837BD4680BD00BF80B582B000AF034656
:100A0400FB71FB79042B38D801A252F823F000BF04
:100A1400290A0008390A0008490A00085B0A000884
:100A24006D0A00084FF48050C4F20100402102F026
:100A340013F923E04FF48050C4F20100802102F046
:100A44000BF91BE04FF48050C4F201004FF48071A5
:100A540002F002F912E04FF48050C4F201004FF4A6
:100A6400007102F0F9F809E04FF48050C4F201007B
:100A74004FF4707102F0F0F800E000BF0837BD4693
:100A840080BD00BF80B582B000AF0346FB71FB7927
:100A9400042B38D801A252F823F000BFB50A00088D
:100AA400C50A0008D50A0008E70A0008F90A000880
:100AB4004FF48050C4F20100402102F0BFF823E05B
:100AC4004FF48050C4F20100802102F0B7F81BE01B
:100AD4004FF48050C4F201004FF4807102F0AEF87C
:100AE40012E04FF48050C4F201004FF4007102F0A0
:100AF400A5F809E04FF48050C4F201004FF470717E
:100B040002F09CF800E000BF0837BD4680BD00BF7E
:100B140080B500AFFFF700FEFFF716FFFFF756FDA5
:100B240000F028F8FFF770FDFFF756FEFFF738FDD9
:100B34000023184680BD00BF80B500AFFFF79CFEC0
:100B440080BD00BF80B500AF4FF48050C4F20100F7
:100B54004FF4805102F072F880BD00BF80B500AF41
:100B64004FF48050C4F201004FF4805102F074F845
:100B740080BD00BF80B584B000AF0120012101F029
:100B8400CDFE42F6E063BB800023FB804FF6FF738B
:100B94003B8100237B8100233B733B1D4FF080404E
:100BA400194601F0DBF94FF08040002101F062FAB0
:100BB4000220012101F0B2FE0C23BB801023FB8034
:100BC4004FF6FF733B8100237B8100233B733B1D66
:100BD4004FF48060C4F20000194601F0BFF94FF4ED
:100BE4008060C4F20000012101F044FA1037BD46D0
:100BF40080BD00BF80B586B000AF4FF40070012106
:100C040001F064FE4FF41050C4F2010002F05CFAEB
:100C140000237B6000233B7200237B724FF460232C
:100C2400FB6000233B6101233B753B1D4FF41050D7
:100C3400C4F20100194602F083FA4FF41050C4F2D2
:100C44000100012102F0CEFAFFF77CFF4FF41050AF
:100C5400C4F2010002F0E2FA00BF4FF41050C4F2F3
:100C6400010002F0EBFA0346002BF6D14FF41050CA
:100C7400C4F2010002F0FAFA00BF4FF41050C4F2BB
:100C8400010002F003FB0346002BF6D1FFF766FFD9
:100C94001837BD4680BD00BF80B582B000AF0346A3
:100CA400FB71FB794FF41050C4F201001946012284
:100CB400002302F01FFB4FF41050C4F20100012185
:100CC40002F0FCFA00BF4FF41050C4F201000221FC
:100CD40002F0E2FB0346002BF5D04FF41050C4F2AF
:100CE400010002F0CBFB034618460837BD4680BD21
:100CF4002DE9704F9046994682468B4600F0C2F823
:100D04004FF40063C4F2010310224FF440565A61B9
:100D1400C4F201064FF0000EBAF1000F0ED01BF81A
:100D24000E30B38135894FF44054EA07C4F201040C
:100D3400F8D50EF1010ED645A389F0DB00214FF45E
:100D440040550E46C4F20105B8F1000F0ED019F853
:100D54000130AB812C894FF44051E307C4F2010107
:100D6400F8D5013646458B893146F0D14FF40063FE
:100D7400C4F2010310221A6100F098F80020BDE8C3
:100D8400708F00BF2DE9704F9046994682468B467E
:100D940000F078F84FF40063C4F2010310224FF41A
:100DA40040565A61C4F201064FF0000EBAF1000F2A
:100DB4000ED01BF80E30B38135894FF44054EA0746
:100DC400C4F20104F8D50EF1010ED645A389F0DB77
:100DD400B8F1000F16D04FF0000E4FF44055764690
:100DE4007246C4F20105AA812C894FF44051E307ED
:100DF400C4F20101F8D501368B89464509F80E3055
:100E0400B646F0D14FF40063C4F2010310221A6114
:100E140000F04CF80020BDE8708F00BF80B483B0B0
:100E240000AF0346FB714FF46143CEF2000397F920
:100E340007205209F97901F01F01012000FA01F19C
:100E440043F822100C37BD465DF8047B704700BFA1
:100E540080B483B000AF0346FB714FF46143CEF21C
:100E6400000397F907205209F97901F01F010120C5
:100E740000FA01F1203243F822100C37BD465DF828
:100E8400047B704780B582B000AF1720FFF724FCC5
:100E940003467B607B68002B02D01720FFF7D8FF46
:100EA4007B6818460837BD4680BD00BF80B582B058
:100EB40000AF78607B68002B02D01720FFF7AEFFED
:100EC4000837BD4680BD00BF00B583B0B9B17F29E6
:100ED40060F03F008DF8000085BF61F07F00C90914
:100EE4008DF801108DF801008ABF8DF802100220E0
:100EF40003206946FFF7FCFE03B05DF804FB60F0D5
:100F04007F008DF8000069460120FFF7F1FE03B071
:100F14005DF804FB00B583B0B9B17F2940F040000F
:100F24008DF8000085BF61F07F00C9098DF80110BC
:100F34008DF801008ABF8DF8021002200320694653
:100F4400FFF720FF03B05DF804FB8DF8000069464D
:100F54000120FFF717FF03B05DF804FB00B504227E
:100F640083B080B289B20DEB0203FFF7D3FF20B147
:100F74004FF0FF3003B05DF804FB9DF807009DF8C7
:100F840006309DF80520A0F5807003EB00209DF845
:100F9400043002EB002003EB002003B05DF804FBF7
:100FA40000B583B080B289B202226B46FFF7B2FF6C
:100FB40020B14FF6FF7003B05DF804FB9DF801000B
:100FC4009DF8003003EB002080B203B05DF804FB11
:100FD40030B583B01446150A89B202226B4680B23A
:100FE4008DF800408DF80150FFF76EFF03B030BD5F
:100FF40070B582B04FEA122E1446160C150E89B243
:1010040004226B4680B28DF800408DF801E08DF823
:1010140002608DF80350FFF757FF02B070BD00BFA8
:101024002DE9704140F23C14C2F20004627F0023B7
:1010340085B019460F2084F85A2084F85430FFF7FD
:101044008DFF4205054603D5667F002E00F087809C
:1010540015F4804646D0680541D515F4801640F055
:10106400998031461020FFF79BFF984B804631460C
:1010740011200222FFF74EFF637B002B00F0CB8090
:10108400C8F3090840F23C1315F00802A4F856808E
:10109400C2F2000308D093F8581001F0200101F0C7
:1010A400FF00002900F0E68084F855204FF0000886
:1010B400617F40F23C160223C2F2000684F85430E9
:1010C400002940F0AB8005F4DE4248EA02020F201A
:1010D400FFF78EFFB36F13B106F15400984705B0C4
:1010E400BDE8708115F0800168D115F4003640F038
:1010F40081804FF41042C2F227422A40002AEED0E7
:101104000F203146FFF774FF236A84F869609B005F
:1011140040F1C58000F036F9EE0444BF082384F89A
:10112400543014D4280400F1BD80E90344BF0923DA
:1011340084F854300BD46A0144BF0A2384F8543031
:1011440005D4AB0240F1AE800B2384F85430A36F76
:10115400002BC4D05E48984705B0BDE8708100F408
:101164006063B3F5606F3FF473AF00F0BBF800F059
:1011740009F9236A05F0F8059B0000F18980A36F43
:10118400032284F85420002B3FF462AF04F154008E
:1011940098475DE700F0A6F800F0F4F8236A40F2FF
:1011A4003C109900C2F200005DD4836F032280F8E2
:1011B4005420002B93D05430984790E7F8220F2006
:1011C4003146FFF715FF94F8552040F23C13C2F264
:1011D400000342B15A7F83F8556022B993F869300D
:1011E4000BB100F07FF8636F012284F85420002BC8
:1011F400B0D174E732460F20FFF7FAFEA36F042242
:1012040084F854200BB132489847002384F869309D
:1012140005B0BDE8708108F07F0833E70126324647
:101224006B460F2003218DF80860FFF773FE9DF8CD
:10123400003023F07F0203F04003B2EB430F3BD0B6
:10124400216A11F0005131D0A36F0BB120489847A7
:1012540000F040F8A8B100F045F800F093F8236AD4
:101264009A007FF53CAF00214FF480720D20FFF708
:10127400AFFE34E783F8550083F869004FF008089F
:1012840016E70321012202AB0D20FFF71DFE26E71E
:1012940031464FF480720D20FFF79AFED8E600F035
:1012A40021F837E7032384F8543050E74FF4807271
:1012B4000D20FFF78DFEC7E705F4C04248EA02029D
:1012C40000210F20FFF794FEBAE700BF940100202D
:1012D4009001002008B502210F20FFF761FE00F005
:1012E400100008BD70B582B04023002102AC0E206E
:1012F40004F8083DFFF732FE0646FFF7C3FD002160
:1013040005460A460E20FFF773FE6B4600210122B4
:101314000D20FFF7D9FD4FF6F872C2F227420021E3
:101324000F20FFF765FE00F011F8324600210E2071
:10133400FFF75EFE2846FFF7B9FD40F23C13C2F208
:101344000003002283F8692002B070BD00B585B0A7
:1013540001226B460F200321FFF7DCFD9DF80030CE
:1013640023F07F0203F04003B2EB430F07D00122C6
:1013740004AB03F8082D0D200321FFF7A5FD05B0EC
:101384005DF804FB10B582B002ACE02304F8083D1C
:1013940003216B4601223620FFF796FDF0246B46AD
:1013A4000321012236208DF80040FFF78DFD02B0A5
:1013B40010BD00BF80B500AF012000F033F980BD3F
:1013C40080B500AFFFF72CFE4FF44060C4F201007B
:1013D400202101F019FC0346012BF3D080BD00BF8E
:1013E400B0B5A4B000AF0023C7F888300123C7F814
:1013F40084300023C7F880304FF000024FF0000320
:10140400C7E91E234FF000024FF00003C7E91C2375
:1014140043F62803C0F600033C1D1D46286869688E
:10142400AA68EB680FC428692060FFF771FBFFF717
:1014340083FBFFF7DFFB022387F88F303BE0FFF7E6
:1014440081FB0A20FFF728FC0346A7F86E3097F8C3
:101454008F30013387F88F30FFF780FB0A20FFF7C6
:101464001BFC0346A7F86C30B7F86C30632B0BD821
:101474000020FFF707FB4AF66060C0F20A00FEF79F
:1014840057FF0020FFF7B8FAB7F86E30B3F5C86F0E
:1014940011D9B7F86E2040F27B639A420BD8012031
:1014A400FFF7F0FA4AF66060C0F20A00FEF740FF68
:1014B4000120FFF7A1FA97F88F30092BBFD901F06B
:1014C40061FC00F0BFF8012041F2AB2100F088FA82
:1014D4003B460120194600F035FA3A6841F2AB2345
:1014E4009A4247D10120FFF7CDFA4FF4D450C0F20D
:1014F4000600FEF71DFF0120FFF77EFA4FF4D450DB
:10150400C0F20600FEF714FF0120FFF7BBFA4FF408
:10151400D450C0F20600FEF70BFF0120FFF76CFA6F
:101524004FF4D450C0F20600FEF702FF0020FFF78C
:10153400A9FA4FF4D450C0F20600FEF7F9FE0020D9
:10154400FFF75AFA4FF4D450C0F20600FEF7F0FE4B
:101554000020FFF797FA4FF4D450C0F20600FEF7CC
:10156400E7FE0020FFF748FA4FF4D450C0F206001B
:10157400FEF7DEFE01F01EFC44F24020C0F20F0034
:10158400FEF7D6FE0120FFF77DFA4AF66060C0F24E
:101594000A00FEF7CDFE0120FFF72EFA4AF660603E
:1015A400C0F20A00FEF7C4FE4FF46050C4F201001A
:1015B400322100F095FC00BF4FF46050C4F20100EA
:1015C400802100F0AFFC0346002BF5D000BF4FF4A0
:1015D4006050C4F20100202100F0A4FC0346002B5B
:1015E400F5D04FF46050C4F2010000F08BFC0346C8
:1015F400A7F86A30B7F86A30322B12D10020FFF70F
:1016040041FA4EF26030C0F21600FEF791FE00205F
:10161400FFF7F2F94EF26030C0F21600FEF788FED2
:10162400B0E7AFE780B483B000AF786040F2C01396
:10163400C2F200037A68C3F8FC290C37BD465DF892
:10164400047B704780B584B000AF06237B810623FA
:101654003B810023FB810023FB800023BB804FF6EA
:10166400FF73BB810023C0F601031B887B814FF409
:101674000063C0F601031B883B817B894EF6EE6252
:1016840093423FD04FF6FF72934203D0002B00F0F9
:10169400C78047E13B89002B0BD10020C0F6010035
:1016A40001F09AFB03467B807B88042B29D07B883E
:1016B40043E13A894EF6EE639A4219D10020C0F60E
:1016C400010001F089FB03467B807B88042B01D059
:1016D4007B8832E14FF40060C0F60100002101F084
:1016E400C1FB03467B807B88042B0AD07B8824E1E2
:1016F40000F098F903467B807B88042B01D07B881B
:101704001BE119E13B89002B61D10023FB8141E0FE
:101714000623C0F601031B889AB2F98940F2F40348
:10172400C2F2000333F811309A4201D1FB89BB8124
:10173400FA89B7F90C309A4229D0FA8940F2F403B5
:10174400C2F2000333F81230184640F2B811C2F264
:10175400000100F0F7F80346BB80BB88012B16D0CC
:10176400FA8940F2F403C2F2000333F8122040F283
:10177400B813C2F200031B881046194600F0C4F9DE
:101784000346FB80FB88042B01D0FB88D5E0FB8952
:101794000133FB81FB89022BBAD90020C0F601007A
:1017A400002101F05FFB03467B807B88042B01D082
:1017B4007B88C2E04FF40060C0F6010001F00CFB2E
:1017C40003467B807B88042B29D07B88B5E03A894B
:1017D4004FF6FF739A4219D14FF40060C0F601002E
:1017E40001F0FAFA03467B807B88042B01D07B88C6
:1017F400A3E00020C0F60100002101F033FB034602
:101804007B807B88042B0AD07B8896E000F00AF961
:1018140003467B807B88042B01D07B888DE08BE0A2
:101824003B89002B08D100F0FDF803467B807B88C0
:10183400042B76D07B8880E03A894FF6FF739A4276
:101844000CD14FF40060C0F6010001F0C5FA034664
:101854007B807B88042B64D07B886EE00023FB8133
:1018640042E040F60603C0F601031B889AB2F989E8
:1018740040F2F403C2F2000333F811309A4201D16A
:10188400FB89BB81FA89B7F90C309A4229D0FA89CD
:1018940040F2F403C2F2000333F81230184640F267
:1018A400B811C2F2000100F04DF80346BB80BB88BA
:1018B400012B16D0FA8940F2F403C2F2000333F884
:1018C400122040F2B813C2F200031B8810461946D6
:1018D40000F01AF90346FB80FB88042B01D0FB8837
:1018E4002BE0FB890133FB81FB89022BB9D94FF42F
:1018F4000060C0F60100002101F0B4FA03467B80C9
:101904007B88042B01D07B8817E00020C0F60100FF
:1019140001F062FA03467B807B88042B01D07B882C
:101924000BE009E000F07EF803467B807B88042B03
:1019340001D07B8801E000BF042318461037BD4660
:1019440080BD00BF80B586B000AF03463960FB8020
:101954000023FB8145F25553BB810123FB82002305
:10196400C0F601033B610023C0F60103BB60002005
:1019740000F084F80346FB81FB89AB2B01D1AB2338
:101984002AE0FB89DB0203F1006303F58033BB60CB
:10199400FB890133DB021A464FF6FE73C0F60003DF
:1019A40013443B6112E03B691B88BB81BA89FB8805
:1019B4009A4208D13B69023B1B889AB23B681A8061
:1019C4000023FB8207E03B69043B3B61BB689A1C34
:1019D4003B699A42E7D3FB8A18461837BD4680BD57
:1019E40080B584B000AF02460B46FA80BB8000236A
:1019F400FB81FA88BB881046194600F085F8034637
:101A0400FB81FB89802B07D1FA88BB8810461946D5
:101A140000F0D4F80346FB81FB8918461037BD4615
:101A240080BD00BF80B582B000AF0423FB710020ED
:101A3400C0F6010001F0D0F90346FB71FB79042BD9
:101A440001D0FB7915E00020C0F60100002101F06F
:101A540009FA0346FB71FB79042B01D0FB7908E0FA
:101A64004FF40060C0F6010001F0B6F90346FB71C3
:101A7400FB7918460837BD4680BD00BF80B485B0E9
:101A840000AF0346FB710623FB810623BB810023C1
:101A9400C0F601031B88FB814FF40063C0F6010309
:101AA4001B88BB81FB79002B1BD0012B25D1BB8963
:101AB400002B08D1FA894EF6EE639A4201D1002335
:101AC4001CE001231AE0FB89002B08D1BA894EF6E9
:101AD400EE639A4201D1012310E000230EE0AB2310
:101AE4000CE0FB89002B01D1002307E0BB89002B0C
:101AF40001D1012302E0AB2300E000231846143790
:101B0400BD465DF8047B704780B586B000AF0246E1
:101B14000B46FA80BB800423FB7400233B82002322
:101B2400C0F601037B6140F2FF73C0F60103FB6062
:101B34000120FFF7A3FF03463B823B8AAB2B01D175
:101B4400AB2337E03B8ADB0203F1006303F5803308
:101B54007B613B8A0133DB021A464FF6FE73C0F603
:101B640000031344FB6020E07B691B68B3F1FF3F73
:101B740018D1BB887869194601F074F90346FB74DF
:101B8400FB7C042B02D0FB7C9BB213E07B699A1C88
:101B9400FB881046194601F065F90346FB74FB7C8B
:101BA4009BB207E07B6904337B617A69FB689A42E4
:101BB400DAD3802318461837BD4680BD80B588B077
:101BC40000AF02460B46FA80BB8004237B7540F2CB
:101BD400FF33C0F60103FB610023C0F60103BB61C0
:101BE40000237B820023FB8200233B820023FB81B2
:101BF4000020FFF743FF03467B827B8A012B09D138
:101C04000023C0F60103FB614FF40063C0F6010337
:101C1400BB610EE07B8A002B09D14FF40063C0F650
:101C24000103FB610023C0F60103BB6101E0AB23A8
:101C34006FE0F8694EF6EE6101F014F903467B7526
:101C44007B7D042B02D07B7D9BB262E0FA88BB884B
:101C540010461946FFF758FF03463B823B8A042B84
:101C640001D03B8A55E00023FB8236E0FA8A40F239
:101C7400F403C2F2000333F81230FA889A4229D0EE
:101C8400FA8A40F2F403C2F2000333F81230184621
:101C940040F2B811C2F20001FFF754FE0346FB8183
:101CA400FB89012B16D0FA8A40F2F403C2F2000336
:101CB40033F8122040F2B813C2F200031B88104616
:101CC4001946FFF721FF03463B823B8A042B01D0D0
:101CD4003B8A1EE0FB8A0133FB82FB8A022BC5D9B7
:101CE400B86901F079F803467B757B7D042B02D03B
:101CF4007B7D9BB20DE0F869002101F0B3F8034647
:101D04007B757B7D042B02D07B7D9BB201E07B7DC8
:101D14009BB218462037BD4680BD00BF80B58CB04D
:101D240000AF786039600023FB620023BB620023AC
:101D34007B6200233B620023FB617B68FB617B6861
:101D44001B8A9BB2FB62FA6A4CF6FF731340FB6278
:101D54003B68DB88FA6A1343FB62FB6A9AB27B68CE
:101D64001A827B689B899BB2FB62FA6A4EF6F31374
:101D74001340FB623B689A883B681B8913439AB201
:101D84003B685B8913439BB2FA6A1343FB62FB6AA9
:101D94009AB27B689A817B689B8A9BB2FB62FA6ADF
:101DA4004FF6FF431340FB623B689B89FA6A134377
:101DB400FB62FB6A9AB27B689A8207F108031846B1
:101DC40000F06CFCFA694FF46053C4F201039A42C8
:101DD40002D17B69BB6201E03B69BB627B689B8982
:101DE4009BB29BB21BB2002B0CDABA6A13469B005F
:101DF40013449A001A443B681B685B00B2FBF3F37C
:101E04007B620BE0BA6A13469B0013449A001A449F
:101E14003B681B689B00B2FBF3F37B627A6A48F26F
:101E24001F53C5F2EB13A3FB02135B091B01FB62F7
:101E3400FB6A1B09642202FB03F37A6AD31A3B622E
:101E44007B689B899BB29BB21BB2002B10DA3B6A66
:101E5400DB0003F1320248F21F53C5F2EB13A3FB7C
:101E640002135B0903F00703FA6A1343FB620FE0F2
:101E74003B6A1B0103F1320248F21F53C5F2EB1314
:101E8400A3FB02135B0903F00F03FA6A1343FB621B
:101E9400FB6A9AB27B681A813037BD4680BD00BFA9
:101EA40080B483B000AF78600B46FB70FB78002BE6
:101EB40008D07B689B899BB243F400539AB27B6839
:101EC4009A8107E07B689B899BB223F400539AB202
:101ED4007B689A810C37BD465DF8047B704700BF70
:101EE40080B483B000AF78600B467B807B88C3F3FB
:101EF40008039AB27B689A800C37BD465DF8047B70
:101F0400704700BF80B483B000AF78607B689B8863
:101F14009BB2C3F308039BB218460C37BD465DF869
:101F2400047B704780B485B000AF78600B467B803B
:101F34000023FB737B681B889AB27B8813409BB297
:101F4400002B02D00123FB7301E00023FB73FB7B16
:101F540018461437BD465DF8047B704780B485B0DD
:101F640000AF786039600023FB817B681B88FB81AC
:101F74007A684FF43053C4F201039A421FD07A684E
:101F84004FF45053C4F201039A4218D07B68B3F162
:101F9400804F14D07A684FF48063C4F200039A42ED
:101FA4000DD07A684FF40063C4F200039A4206D05D
:101FB4007A684FF44063C4F200039A4208D1FB8963
:101FC40023F07003FB813B685A88FB891343FB8130
:101FD4007A684FF48053C4F200039A420FD07A68AF
:101FE4004FF4A053C4F200039A4208D0FB8923F4AF
:101FF4004073FB813B68DA88FB891343FB817B6870
:10200400FA891A803B689A887B689A853B681A88A3
:102014007B681A857A684FF43053C4F201039A42FC
:102024001BD07A684FF45053C4F201039A4214D07F
:102034007A684FF48043C4F201039A420DD07A685F
:102044004FF48843C4F201039A4206D07A684FF4ED
:102054009043C4F201039A4204D13B681B7A1A46A6
:102064007B681A867B6801229A821437BD465DF824
:10207400047B704780B483B000AF78600B46FB707C
:10208400FB78002B08D07B681B889BB243F00103CC
:102094009AB27B681A8007E07B681B889BB223F0A6
:1020A40001039AB27B681A800C37BD465DF8047B45
:1020B400704700BF80B582B000AF78607A684FF493
:1020C4004053C4F201039A420AD14FF480500121D3
:1020D40000F04CFC4FF48050002100F047FC22E05B
:1020E4007A684FF46053C4F200039A420AD14FF461
:1020F4008040012100F062FC4FF48040002100F098
:102104005DFC10E07A684FF47053C4F200039A4205
:1021140009D14FF40040012100F050FC4FF400407D
:10212400002100F04BFC0837BD4680BD80B485B06B
:1021340000AF786039600023FB817B681B88FB81DA
:10214400FB8903F44153FB813B681A883B685B8835
:1021540013439AB23B689B8813439AB23B68DB886B
:1021640013439AB23B681B8913439AB23B685B8959
:1021740013439AB23B689B8913439AB23B68DB8949
:1021840013439AB2FB891343FB817B68FA891A8053
:102194007B689B8B9BB223F400639AB27B689A831F
:1021A4003B681A8A7B681A821437BD465DF8047B43
:1021B400704700BF80B483B000AF78600B46FB70FB
:1021C400FB78002B08D07B681B889BB243F040034C
:1021D4009AB27B681A8007E07B681B889BB223F065
:1021E40040039AB27B681A800C37BD465DF8047BC5
:1021F400704700BF80B483B000AF78600B46FB70BB
:10220400FB78002B08D07B689B889BB243F00403C7
:102214009AB27B689A8007E07B689B889BB223F024
:1022240004039AB27B689A800C37BD465DF8047B40
:10223400704700BF80B400AF00BF4FF42053C4F216
:1022440000039B889BB203F02003002BF5D0BD460E
:102254005DF8047B704700BF80B485B000AF0346CF
:10226400FB800023FB734FF42053C4F200039B88CC
:102274009BB2DAB2FB88DBB21340FB734FF42053FA
:10228400C4F200031B889AB2FB8813409BB2002B54
:1022940005D0FB7B002B02D00123FB7301E000235C
:1022A400FB73FB7B18461437BD465DF8047B70470F
:1022B40080B483B000AF0346FB804FF42053C4F2D4
:1022C40000034FF42052C4F20002928891B2FA88BB
:1022D400D24392B20A4092B29A800C37BD465DF85E
:1022E400047B704780B400AF4FF48053C4F2020300
:1022F4004FF48052C4F20202126842F001021A60E2
:102304004FF48052C4F202024FF48053C4F2020329
:1023140059680023CFF2FF030B4053604FF48053FE
:10232400C4F202034FF48052C4F20202126822F093
:10233400847222F480321A604FF48053C4F2020390
:102344004FF48052C4F20202126822F480221A600E
:102354004FF48053C4F202034FF48052C4F20202D9
:10236400526822F4FE025A604FF48053C4F202030E
:102374004FF48052C4F20202126822F0A0521A6092
:102384004FF48053C4F202034FF47F029A604FF477
:102394008053C4F202030022DA62BD465DF8047B76
:1023A400704700BF80B483B000AF78604FF48053AF
:1023B400C4F202034FF48052C4F20202126822F4FF
:1023C40080321A604FF48053C4F202034FF48052F7
:1023D400C4F20202126822F480221A607B68B3F508
:1023E400803F03D0B3F5802F0DD019E04FF4805314
:1023F400C4F202034FF48052C4F20202126842F49F
:1024040080321A600CE04FF48053C4F202034FF49C
:102414008052C4F20202126842F4A0221A6000BF81
:102424000C37BD465DF8047B704700BF80B582B0B1
:1024340000AF00233B600023FB710023BB713120FC
:1024440000F0E4FA0346BB713B6801333B603B6830
:10245400B3F5A06F02D0BB79002BF0D0312000F08F
:10246400D5FA0346002B02D00123FB7101E00023BF
:10247400FB71FB7918460837BD4680BD80B483B034
:1024840000AF0346FB716023C4F24223FA791A6059
:102494000C37BD465DF8047B704700BF80B485B03F
:1024A40000AF78600023FB604FF48053C4F2020352
:1024B400DB6AFB60FB6823F0F003FB60FA687B686F
:1024C4001343FB604FF48053C4F20203FA68DA62E8
:1024D4001437BD465DF8047B704700BF80B485B0F7
:1024E40000AF78600023FB604FF48053C4F2020312
:1024F400DB6AFB60FB6823F47063FB60FA687B684B
:102504001343FB604FF48053C4F20203FA68DA62A7
:102514001437BD465DF8047B704700BF80B483B0B8
:1025240000AF0346FB716823C4F24223FA791A60B0
:102534000C37BD465DF8047B704700BF80B485B09E
:1025440000AF78600023FB604FF48053C4F20203B1
:102554005B68FB60FB6823F00303FB60FA687B683D
:102564001343FB604FF48053C4F20203FA685A60C9
:102574001437BD465DF8047B704700BF80B400AFDC
:102584004FF48053C4F202035B68DBB203F00C0324
:10259400DBB21846BD465DF8047B704780B485B055
:1025A40000AF78600023FB604FF48053C4F2020351
:1025B4005B68FB60FB6823F0F003FB60FA687B68F0
:1025C4001343FB604FF48053C4F20203FA685A6069
:1025D4001437BD465DF8047B704700BF80B485B0F6
:1025E40000AF78600023FB604FF48053C4F2020311
:1025F4005B68FB60FB6823F4E063FB60FA687B685C
:102604001343FB604FF48053C4F20203FA685A6028
:102614001437BD465DF8047B704700BF80B485B0B5
:1026240000AF78600023FB604FF48053C4F20203D0
:102634005B68FB60FB6823F46053FB607B68DB0032
:10264400FA681343FB604FF48053C4F20203FA6840
:102654005A601437BD465DF8047B704780B485B07A
:1026640000AF78600023FB604FF48053C4F2020390
:102674005B68FB60FB6823F44043FB60FA687B689B
:102684001343FB604FF48053C4F20203FA685A60A8
:102694001437BD465DF8047B704700BF80B48BB02F
:1026A40000AF786000233B6200237B620023FB6160
:1026B4000023BB6100237B6100233B610023FB609B
:1026C4000023BB604FF48053C4F202035B6803F041
:1026D4000C033B623B6A042B0AD0082B0FD0002B5F
:1026E4007FD17A684FF49053C0F27A0313607FE08D
:1026F4007A684FF41053C0F2F403136078E04FF497
:102704008053C4F202035B6803F470137B624FF4DA
:102714008053C4F202035B6803F48033FB617B6A79
:102724009B0C7B627B6A0D2B03D07B6A02337B623A
:1027340001E006237B62FB69002B09D17A6A4FF41E
:102744001063C0F23D0303FB02F27B681A6047E0AA
:102754004FF48053C4F20203DB6A03F480337B61D9
:102764004FF48053C4F20203DB6A03F00F03013316
:102774003B617B69002B0CD14FF41053C0F2F4037E
:102784003A69B3FBF2F37A6A02FB03F27B681A60DC
:1027940026E04FF48053C4F20203DB6A03F0F00333
:1027A4001B090133FB604FF48053C4F20203DB6A5C
:1027B40003F470631B0A0233BB604FF41053C0F27E
:1027C400F403FA68B3FBF2F3BA6802FB03F23B6961
:1027D400B2FBF3F37A6A02FB03F27B681A6007E048
:1027E40006E07A684FF49053C0F27A03136000BF96
:1027F4004FF48053C4F202035B6803F0F0033B62BE
:102804003B6A1B093B6240F20813C2F200033A6AB6
:1028140013441B78DBB2BB617B681A68BB69DA407E
:102824007B685A604FF48053C4F202035B6803F47C
:10283400E0633B623B6A1B0A3B6240F20813C2F24C
:1028440000033A6A13441B78DBB2BB617B685A68A5
:10285400BB69DA407B689A604FF48053C4F2020388
:102864005B6803F460533B623B6ADB0A3B6240F201
:102874000813C2F200033A6A13441B78DBB2BB614B
:102884007B685A68BB69DA407B68DA604FF480532E
:10289400C4F202035B6803F440433B623B6A9B0B54
:1028A4003B6240F21813C2F200033A6A13441B78E5
:1028B400DBB2BB617B68DA68BB69B2FBF3F27B68AD
:1028C4001A612C37BD465DF8047B704780B483B031
:1028D40000AF78600B46FB70FB78002B0CD04FF4F4
:1028E4008053C4F202034FF48052C4F2020291698D
:1028F4007A680A439A610CE04FF48053C4F20203ED
:102904004FF48052C4F2020291697A68D2430A40B9
:102914009A610C37BD465DF8047B704780B483B080
:1029240000AF78600B46FB70FB78002B0CD04FF4A3
:102934008053C4F202034FF48052C4F20202D169FC
:102944007A680A43DA610CE04FF48053C4F202035C
:102954004FF48052C4F20202D1697A68D2430A4029
:10296400DA610C37BD465DF8047B704780B483B0F0
:1029740000AF78600B46FB70FB78002B0CD04FF453
:102984008053C4F202034FF48052C4F20202D168AD
:102994007A680A43DA600CE04FF48053C4F202030D
:1029A4004FF48052C4F20202D1687A68D2430A40DA
:1029B400DA600C37BD465DF8047B704780B483B0A1
:1029C40000AF78600B46FB70FB78002B0CD04FF403
:1029D4008053C4F202034FF48052C4F2020211691C
:1029E4007A680A431A610CE04FF48053C4F202037C
:1029F4004FF48052C4F2020211697A68D2430A4049
:102A04001A610C37BD465DF8047B704780B487B00B
:102A140000AF0346FB710023FB6000237B610023AE
:102A2400FB74FB795B09DBB2FB60FB68012B06D10D
:102A34004FF48053C4F202031B687B610FE0FB6810
:102A4400022B06D14FF48053C4F202031B6A7B614C
:102A540005E04FF48053C4F202035B6A7B61FB79A7
:102A640003F01F03FB60FB687A6922FA03F303F0A7
:102A74000103002B02D00123FB7401E00023FB744B
:102A8400FB7C18461C37BD465DF8047B704700BFCD
:102A940080B489B000AF786039600023FB61002303
:102AA4003B610023BB610023FB6000237B610023A7
:102AB400BB603B68DB7803F00F03FB613B68DB78AA
:102AC40003F01003002B04D03B689B78FA6913438E
:102AD400FB613B681B88DBB2002B44D07B681B681E
:102AE4007B610023BB6138E0BB69012202FA03F376
:102AF400FB603B681B881A46FB6813403B613A69DC
:102B0400FB689A4226D1BB699B00FB60FB680F22DD
:102B140002FA03F3BB60BB68DB437A6913407B6151
:102B2400FB68FA6902FA03F37A6913437B613B6831
:102B3400DB78282B05D1BB6901229A407B685A6156
:102B440008E03B68DB78482B04D1BB6901229A403A
:102B54007B681A61BB690133BB61BB69072BC3D9AD
:102B64007B687A691A603B681B88FF2B46D97B68AF
:102B74005B687B610023BB613AE0BB6908330122D7
:102B840002FA03F3FB603B681B881A46FB68134098
:102B94003B613A69FB689A4227D1BB699B00FB60A1
:102BA400FB680F2202FA03F3BB60BB68DB437A695C
:102BB40013407B61FB68FA6902FA03F37A691343F1
:102BC4007B613B68DB78282B05D1BB690833012284
:102BD4009A407B685A613B68DB78482B05D1BB6916
:102BE400083301229A407B681A61BB690133BB61D7
:102BF400BB69072BC1D97B687A695A602437BD4603
:102C04005DF8047B704700BF80B485B000AF786086
:102C14000B467B800023FB737B689A687B88134098
:102C2400002B02D00123FB7301E00023FB73FB7B29
:102C340018461437BD465DF8047B704780B483B0F2
:102C440000AF78600B467B807A887B681A610C370A
:102C5400BD465DF8047B704780B483B000AF7860F4
:102C64000B467B807A887B685A610C37BD465DF8D9
:102C7400047B704790B484B000AF02460B46FA71EF
:102C8400BB710023FB60BB7903F003039B000F229D
:102C940002FA03F3FB600023C4F20103BA79920839
:102CA400D2B210460022C4F20102B9798908C9B22D
:102CB400023152F82110FA68D2431140821C43F8C1
:102CC40022100023C4F20103BA799208D2B210464A
:102CD4000022C4F20102B9798908C9B2023152F85A
:102CE4002110FC79BA7902F00302920004FA02F28C
:102CF4001143821C43F822101037BD4690BC704724
:102D040080B485B000AF78600023FB604FF40053BB
:102D1400C4F202031B68FB60FB6803F03803FB602A
:102D2400FA687B681343FB604FF40053C4F2020358
:102D3400FA681A601437BD465DF8047B704700BF1B
:102D440080B483B000AF78604FF40053C4F2020340
:102D54004FF40052C4F20202126822F010021A6008
:102D64004FF40053C4F202034FF40052C4F20202BF
:102D740011687A680A431A600C37BD465DF8047B13
:102D8400704700BF80B400AF4FF40053C4F2020395
:102D940040F22312C4F267525A604FF40053C4F253
:102DA400020348F6AB12CCF6EF525A60BD465DF80A
:102DB400047B704780B400AF4FF40053C4F20203A5
:102DC4004FF40052C4F20202126942F080021A6106
:102DD400BD465DF8047B704780B584B000AF786071
:102DE4000423FB734FF4302000F0A6F80346FB7372
:102DF400FB7B042B30D14FF40053C4F202034FF495
:102E04000052C4F20202126942F002021A614FF443
:102E14000053C4F202037A685A614FF40053C4F2B7
:102E240002034FF40052C4F20202126942F040025B
:102E34001A614FF4302000F07FF80346FB734FF41F
:102E44000053C4F202034FF40052C4F202021169A7
:102E540041F6FD720A401A61FB7B18461037BD46E5
:102E640080BD00BF80B584B000AF78600B467B8026
:102E74000423FB734FF4005000F05EF80346FB7329
:102E8400FB7B042B21D14FF40053C4F202034FF413
:102E94000052C4F20202126942F001021A617B6814
:102EA4007A881A804FF4005000F046F80346FB730A
:102EB4004FF40053C4F202034FF40052C4F202026E
:102EC400116941F6FE720A401A61FB7B18461037FD
:102ED400BD4680BD80B483B000AF0423FB714FF4C2
:102EE4000053C4F20203DB6803F00103002B02D099
:102EF4000123FB7119E04FF40053C4F20203DB68B1
:102F040003F00403002B02D00223FB710DE04FF405
:102F14000053C4F20203DB6803F01003002B02D059
:102F24000323FB7101E00423FB71FB7918460C3782
:102F3400BD465DF8047B704780B584B000AF78600F
:102F44000423FB73FFF7C6FF0346FB7306E0FFF79A
:102F5400C1FF0346FB737B68013B7B60FB7B012B5A
:102F640002D17B68002BF2D17B68002B01D10523B1
:102F7400FB73FB7B18461037BD4680BD80B485B01B
:102F840000AF78600023FB604FF48063C4F2010358
:102F9400FB607B689B79002B74D04FF48063C4F290
:102FA40001034FF48062C4F2010211687A68126866
:102FB400D2430A401A604FF48063C4F201034FF411
:102FC4008062C4F2010251687A681268D2430A40EE
:102FD4005A607B681B79FA681344FB60FB68FA68E3
:102FE40011687A6812680A431A604FF48063C4F265
:102FF40001034FF48062C4F2010291687A68126896
:10300400D2430A409A604FF48063C4F201034FF440
:103014008062C4F20102D1687A681268D2430A401D
:10302400DA607B685B79102B1AD14FF48063C4F2A9
:1030340001034FF48062C4F2010291687A68126855
:103044000A439A604FF48063C4F201034FF4806230
:10305400C4F20102D1687A6812680A43DA601EE099
:103064004FF48063C4F20103FB607B685B79FA6808
:103074001344FB60FB68FA6811687A6812680A43B3
:103084001A600CE07B681B79FA681344FB60FB68E8
:10309400FA6811687A681268D2430A401A601437D1
:1030A400BD465DF8047B704780B483B000AF7860A0
:1030B4004FF48063C4F201037A685A610C37BD4649
:1030C4005DF8047B704700BF80B582B000AF7860C4
:1030D4007A684FF41053C4F201039A420AD14FF4B0
:1030E40000700121FFF742FC4FF400700021FFF74C
:1030F4003DFC22E07A684FF42053C4F201039A4263
:103104000AD14FF480600121FFF730FC4FF4806056
:103114000021FFF72BFC10E07A684FF47053C4F2DF
:1031240001039A4209D14FF400400121FFF71EFC2C
:103134004FF400400021FFF719FC0837BD4680BD5D
:1031440080B485B000AF786039600023FB60002351
:10315400FB727B685B68FB60FB6823F4702323F4D9
:103164008073FB603B681A683B681B791B0213433E
:10317400FA681343FB607B68FA685A607B689B6853
:10318400FB60FA684FF2FD73CFF6F1731340FB60F6
:103194003B68DA683B689B681A433B685B795B0071
:1031A4001343FA681343FB607B68FA689A607B6890
:1031B400DB6AFB60FB6823F47003FB603B681B7CE9
:1031C400013BDAB2FB7A1343FB72FB7A1B05FA6804
:1031D4001343FB607B68FA68DA621437BD465DF816
:1031E400047B704780B483B000AF78600B46FB70FB
:1031F400FB78002B06D07B689B6843F001027B6858
:103204009A6005E07B689B6823F001027B689A6002
:103214000C37BD465DF8047B704700BF80B483B0B3
:1032240000AF78607B689B6843F008027B689A6013
:103234000C37BD465DF8047B704700BF80B485B091
:1032440000AF78600023FB737B689B6803F008037E
:10325400002B02D00123FB7301E00023FB73FB7BF3
:1032640018461437BD465DF8047B704780B483B0BC
:1032740000AF78607B689B6843F004027B689A60C7
:103284000C37BD465DF8047B704700BF80B485B041
:1032940000AF78600023FB737B689B6803F0040332
:1032A400002B02D00123FB7301E00023FB73FB7BA3
:1032B40018461437BD465DF8047B704780B483B06C
:1032C40000AF78600B46FB70FB78002B06D07B6860
:1032D4009B6843F4A0027B689A6005E07B689B6866
:1032E40023F4A0027B689A600C37BD465DF8047B2A
:1032F400704700BF80B485B000AF7860F970BA70D1
:103304007B700023FB600023BB60FB78092B23D96F
:103314007B68DB68FB60FB78A3F10A0213465B0061
:103324001344072202FA03F3BB60BB68DB43FA6869
:103334001340FB607978FB78A3F10A0213465B0023
:10334400134401FA03F3BB60FA68BB681343FB60E0
:103354007B68FA68DA601EE07B681B69FB60FA78B8
:1033640013465B001344072202FA03F3BB60BB68F5
:10337400DB43FA681340FB607978FA7813465B0004
:10338400134401FA03F3BB60FA68BB681343FB60A0
:103394007B68FA681A61BB78062B21D87B685B6B63
:1033A400FB60BB785A1E13469B0013441F2202FA8B
:1033B40003F3BB60BB68DB43FA681340FB60F97836
:1033C400BB785A1E13469B00134401FA03F3BB60F7
:1033D400FA68BB681343FB607B68FA685A6347E08A
:1033E400BB780C2B21D87B681B6BFB60BB78DA1F86
:1033F40013469B0013441F2202FA03F3BB60BB680D
:10340400DB43FA681340FB60F978BB78DA1F134694
:103414009B00134401FA03F3BB60FA68BB681343CF
:10342400FB607B68FA681A6322E07B68DB6AFB60F6
:10343400BB78A3F10D0213469B0013441F2202FA2A
:1034440003F3BB60BB68DB43FA681340FB60F978A5
:10345400BB78A3F10D0213469B00134401FA03F356
:10346400BB60FA68BB681343FB607B68FA68DA6286
:103474001437BD465DF8047B704700BF80B483B049
:1034840000AF78607B68DB6C9BB218460C37BD4696
:103494005DF8047B704700BF80B485B000AF7860EE
:1034A4000B46FB700023FB737B681A68FB781340A0
:1034B400002B02D00123FB7301E00023FB73FB7B91
:1034C40018461437BD465DF8047B704780B483B05A
:1034D40000AF78604FF46D43CEF200037A6842F097
:1034E400BF6242F40032DA600C37BD465DF8047BFB
:1034F400704700BF80B487B000AF786000237B6161
:1035040000233B610F23FB607B68DB78002B42D0F8
:103514004FF46D43CEF20003DB68DB4303F4E06356
:103524001B0A7B617B69C3F104033B617B69FA6815
:1035340022FA03F3FB607B685B781A463B6902FA64
:1035440003F37B617B689B781A46FB6813407A69B6
:1035540013437B617B691B017B614FF46143CEF2B2
:1035640000037A68127811467A69D2B20B4483F860
:1035740000234FF46143CEF200037A6812785209B3
:10358400D2B27968097801F01F01012000FA01F133
:1035940043F8221011E04FF46143CEF200037A683D
:1035A40012785209D2B27968097801F01F0101201A
:1035B40000FA01F1203243F822101C37BD465DF8B1
:1035C400047B704780B500AF4FF48053C4F202030C
:1035D4004FF48052C4F20202126842F001021A60EF
:1035E4004FF48052C4F202024FF48053C4F2020337
:1035F40059680023CFF2FF030B4053604FF480530C
:10360400C4F202034FF48052C4F20202126822F0A0
:10361400847222F480321A604FF48053C4F202039D
:103624004FF48052C4F20202126822F480221A601B
:103634004FF48053C4F202034FF48052C4F20202E6
:10364400526822F4FE025A604FF48053C4F202031B
:103654004FF48052C4F20202126822F0A0521A609F
:103664004FF48053C4F202034FF47F029A604FF484
:103674008053C4F202030022DA6200F009F84FF426
:103684006D43CEF200034FF000629A6080BD00BF2C
:1036940080B500AF00F002F880BD00BF80B483B0F5
:1036A40000AF00237B6000233B604FF48053C4F2DF
:1036B40002034FF48052C4F20202126842F48032D0
:1036C4001A604FF48053C4F202031B6803F40033FE
:1036D4003B607B6801337B603B68002B03D17B68D4
:1036E400B3F5A06FEDD14FF48053C4F202031B680D
:1036F40003F40033002B02D001233B6001E00023DC
:103704003B603B68012B61D14FF40053C4F20203C8
:103714004FF40052C4F20202126842F010021A601E
:103724004FF40053C4F202034FF40052C4F20202F5
:10373400126822F003021A604FF40053C4F2020329
:103744004FF40052C4F2020212681A604FF480531C
:10375400C4F202034FF48052C4F2020252685A6067
:103764004FF48053C4F202034FF48052C4F20202B5
:1037740052685A604FF48053C4F202034FF48052EB
:10378400C4F2020252685A604FF48053C4F2020336
:103794004FF48052C4F20202526822F003025A60CB
:1037A4004FF48053C4F202034FF48052C4F2020275
:1037B400526842F001025A6000BF4FF48053C4F2D1
:1037C40002035B6803F00C03042BF6D10C37BD46EF
:1037D4005DF8047B704700BF002103E00B4B5B588E
:1037E400435004310A480B4B42189A42F6D30A4A12
:1037F40002E0002342F8043B084B9A42F9D3FFF756
:10380400E1FEFCF767FDFDF7EBFD7047C0380008EB
:10381400000000202001002020010020C80B00200F
:10382400FEE700003412CDAB0000000000000000F1
:103834000000000000000000000000000000000084
:103844000000000000000000000000000000000074
:103854000000000000000000000000000000000064
:103864000000000000000000000000000000000054
:103874000000000000000000000000000000000044
:103884000000000000000000000000000000000034
:10389400000000000000000043000000F8B500BF75
:1038A400F8BC08BC9E467047F8B500BFF8BC08BC1D
:0438B4009E46704775
:0438B8006D02000895
:0438BC003D020008C1
:1038C00004000020000000007C3800085C3800087C
:1038D0003C3800080000000000000000000000006C
:1038E000000000009C3800080000000000000000FC
:1038F00000000000000000000000000000000000C8
:1039000000000000000000000000000000000000B7
:1039100000000000000000000000000000000000A7
:103920000000000000000000000000000000000097
:103930000000000000000000000000000000000087
:103940000000000000000000000000000000000077
:103950000000000000000000000000000000000067
:103960000000000000000000000000000000000057
:103970000000000000000000000000000000000047
:103980000000000000000000000000000000000037
:103990000000000000000000000000000000000027
:1039A0000000000000000000000000000000000017
:1039B00000000000000001000200030004000500F8
:1039C00006000700080009000000000001020304CF
:1039D0000102030406070809020406080024F40093
:04000005080037DDDB
:00000001FF
